{
  "address": "0x69c99761a987Db3a72184B2F72FDcf9Dd2914D52",
  "abi": [
    {
      "anonymous": false,
      "inputs": [
        {
          "indexed": true,
          "internalType": "address",
          "name": "collection",
          "type": "address"
        },
        {
          "indexed": false,
          "internalType": "address[]",
          "name": "contracts",
          "type": "address[]"
        },
        {
          "indexed": false,
          "internalType": "bytes4[]",
          "name": "selectors",
          "type": "bytes4[]"
        },
        {
          "indexed": false,
          "internalType": "string[]",
          "name": "description",
          "type": "string[]"
        }
      ],
      "name": "AddRecipe",
      "type": "event"
    },
    {
      "anonymous": false,
      "inputs": [
        {
          "indexed": true,
          "internalType": "address",
          "name": "previousOwner",
          "type": "address"
        },
        {
          "indexed": true,
          "internalType": "address",
          "name": "newOwner",
          "type": "address"
        }
      ],
      "name": "OwnershipTransferred",
      "type": "event"
    },
    {
      "anonymous": false,
      "inputs": [
        {
          "indexed": true,
          "internalType": "address",
          "name": "collection",
          "type": "address"
        },
        {
          "indexed": false,
          "internalType": "address[]",
          "name": "contracts",
          "type": "address[]"
        },
        {
          "indexed": false,
          "internalType": "bytes4[]",
          "name": "selectors",
          "type": "bytes4[]"
        }
      ],
      "name": "RemoveRecipe",
      "type": "event"
    },
    {
      "inputs": [
        {
          "internalType": "address",
          "name": "_collection",
          "type": "address"
        },
        {
          "internalType": "address[]",
          "name": "_contracts",
          "type": "address[]"
        },
        {
          "internalType": "bytes4[]",
          "name": "_selectors",
          "type": "bytes4[]"
        },
        {
          "internalType": "string[]",
          "name": "_descriptions",
          "type": "string[]"
        }
      ],
      "name": "add",
      "outputs": [],
      "stateMutability": "nonpayable",
      "type": "function"
    },
    {
      "inputs": [
        {
          "internalType": "bytes32",
          "name": "",
          "type": "bytes32"
        }
      ],
      "name": "functionDescriptions",
      "outputs": [
        {
          "internalType": "string",
          "name": "",
          "type": "string"
        }
      ],
      "stateMutability": "view",
      "type": "function"
    },
    {
      "inputs": [
        {
          "internalType": "address",
          "name": "_collection",
          "type": "address"
        },
        {
          "internalType": "address",
          "name": "_contract",
          "type": "address"
        },
        {
          "internalType": "bytes4",
          "name": "_selector",
          "type": "bytes4"
        }
      ],
      "name": "isAllowedFunction",
      "outputs": [
        {
          "internalType": "bool",
          "name": "",
          "type": "bool"
        }
      ],
      "stateMutability": "view",
      "type": "function"
    },
    {
      "inputs": [],
      "name": "owner",
      "outputs": [
        {
          "internalType": "address",
          "name": "",
          "type": "address"
        }
      ],
      "stateMutability": "view",
      "type": "function"
    },
    {
      "inputs": [
        {
          "internalType": "address",
          "name": "_collection",
          "type": "address"
        },
        {
          "internalType": "address[]",
          "name": "_contracts",
          "type": "address[]"
        },
        {
          "internalType": "bytes4[]",
          "name": "_selectors",
          "type": "bytes4[]"
        }
      ],
      "name": "remove",
      "outputs": [],
      "stateMutability": "nonpayable",
      "type": "function"
    },
    {
      "inputs": [],
      "name": "renounceOwnership",
      "outputs": [],
      "stateMutability": "nonpayable",
      "type": "function"
    },
    {
      "inputs": [
        {
          "internalType": "address",
          "name": "newOwner",
          "type": "address"
        }
      ],
      "name": "transferOwnership",
      "outputs": [],
      "stateMutability": "nonpayable",
      "type": "function"
    }
  ],
  "transactionHash": "0xd800b878209d7a2516f4baee781df02cae9481928ad02b20f97e68271331bbbc",
  "args": [],
  "numDeployments": 1,
  "solcInputHash": "a56c6ee922d4ac6e80286fa9713dcc7e",
  "bytecode": "0x608060405234801561001057600080fd5b5061001a3361001f565b61006f565b600080546001600160a01b038381166001600160a01b0319831681178455604051919092169283917f8be0079c531659141344cd1fd0a4f28419497f9722a3daafe3b4186f6b6457e09190a35050565b610d898061007e6000396000f3fe608060405234801561001057600080fd5b506004361061007d5760003560e01c806386458a9a1161005b57806386458a9a146100d85780638da5cb5b146100eb578063904cea8914610106578063f2fde38b1461011957600080fd5b80630c73853b14610082578063715018a6146100ab5780637421237c146100b5575b600080fd5b610095610090366004610811565b61012c565b6040516100a2919061082a565b60405180910390f35b6100b36101c6565b005b6100c86100c33660046108b3565b6101da565b60405190151581526020016100a2565b6100b36100e6366004610942565b610236565b6000546040516001600160a01b0390911681526020016100a2565b6100b36101143660046109ed565b610383565b6100b3610127366004610a6e565b6104a3565b6002602052600090815260409020805461014590610a89565b80601f016020809104026020016040519081016040528092919081815260200182805461017190610a89565b80156101be5780601f10610193576101008083540402835291602001916101be565b820191906000526020600020905b8154815290600101906020018083116101a157829003601f168201915b505050505081565b6101ce610521565b6101d8600061057b565b565b6000808484846040516020016101f293929190610ac3565b60408051601f1981840301815291815281516020928301206001600160a01b03881660009081526001909352912090915061022d90826105cb565b95945050505050565b61023e610521565b6000805b86811015610378578888888381811061025d5761025d610afb565b90506020020160208101906102729190610a6e565b87878481811061028457610284610afb565b90506020020160208101906102999190610b11565b6040516020016102ab93929190610ac3565b60408051601f1981840301815291815281516020928301206001600160a01b038c166000908152600190935291209092506102e690836105e8565b508383828181106102f9576102f9610afb565b905060200281019061030b9190610b2c565b6000848152600260205260409020610324929091610742565b50886001600160a01b03167fa37cd0d03093e07c4ef9cd1f187c6914dc250f2801c02c8eabd6ac8395ce24c089898989898960405161036896959493929190610c20565b60405180910390a2600101610242565b505050505050505050565b61038b610521565b6000805b8481101561049a57868686838181106103aa576103aa610afb565b90506020020160208101906103bf9190610a6e565b8585848181106103d1576103d1610afb565b90506020020160208101906103e69190610b11565b6040516020016103f893929190610ac3565b60408051601f1981840301815291815281516020928301206001600160a01b038a1660009081526001909352912090925061043390836105f4565b50600082815260026020526040812061044b916107c6565b866001600160a01b03167fde0904bd74762636b0230e0d8a5fe443456c9439692fd9f70523616fc20d80b38787878760405161048a9493929190610ce6565b60405180910390a260010161038f565b50505050505050565b6104ab610521565b6001600160a01b0381166105155760405162461bcd60e51b815260206004820152602660248201527f4f776e61626c653a206e6577206f776e657220697320746865207a65726f206160448201526564647265737360d01b60648201526084015b60405180910390fd5b61051e8161057b565b50565b6000546001600160a01b031633146101d85760405162461bcd60e51b815260206004820181905260248201527f4f776e61626c653a2063616c6c6572206973206e6f7420746865206f776e6572604482015260640161050c565b600080546001600160a01b038381166001600160a01b0319831681178455604051919092169283917f8be0079c531659141344cd1fd0a4f28419497f9722a3daafe3b4186f6b6457e09190a35050565b600081815260018301602052604081205415155b90505b92915050565b60006105df8383610600565b60006105df838361064f565b6000818152600183016020526040812054610647575081546001818101845560008481526020808220909301849055845484825282860190935260409020919091556105e2565b5060006105e2565b60008181526001830160205260408120548015610738576000610673600183610d18565b855490915060009061068790600190610d18565b90508181146106ec5760008660000182815481106106a7576106a7610afb565b90600052602060002001549050808760000184815481106106ca576106ca610afb565b6000918252602080832090910192909255918252600188019052604090208390555b85548690806106fd576106fd610d3d565b6001900381819060005260206000200160009055905585600101600086815260200190815260200160002060009055600193505050506105e2565b60009150506105e2565b82805461074e90610a89565b90600052602060002090601f01602090048101928261077057600085556107b6565b82601f106107895782800160ff198235161785556107b6565b828001600101855582156107b6579182015b828111156107b657823582559160200191906001019061079b565b506107c29291506107fc565b5090565b5080546107d290610a89565b6000825580601f106107e2575050565b601f01602090049060005260206000209081019061051e91905b5b808211156107c257600081556001016107fd565b60006020828403121561082357600080fd5b5035919050565b600060208083528351808285015260005b818110156108575785810183015185820160400152820161083b565b81811115610869576000604083870101525b50601f01601f1916929092016040019392505050565b80356001600160a01b038116811461089657600080fd5b919050565b80356001600160e01b03198116811461089657600080fd5b6000806000606084860312156108c857600080fd5b6108d18461087f565b92506108df6020850161087f565b91506108ed6040850161089b565b90509250925092565b60008083601f84011261090857600080fd5b50813567ffffffffffffffff81111561092057600080fd5b6020830191508360208260051b850101111561093b57600080fd5b9250929050565b60008060008060008060006080888a03121561095d57600080fd5b6109668861087f565b9650602088013567ffffffffffffffff8082111561098357600080fd5b61098f8b838c016108f6565b909850965060408a01359150808211156109a857600080fd5b6109b48b838c016108f6565b909650945060608a01359150808211156109cd57600080fd5b506109da8a828b016108f6565b989b979a50959850939692959293505050565b600080600080600060608688031215610a0557600080fd5b610a0e8661087f565b9450602086013567ffffffffffffffff80821115610a2b57600080fd5b610a3789838a016108f6565b90965094506040880135915080821115610a5057600080fd5b50610a5d888289016108f6565b969995985093965092949392505050565b600060208284031215610a8057600080fd5b6105df8261087f565b600181811c90821680610a9d57607f821691505b602082108103610abd57634e487b7160e01b600052602260045260246000fd5b50919050565b6bffffffffffffffffffffffff19606094851b811682529290931b90911660148301526001600160e01b0319166028820152602c0190565b634e487b7160e01b600052603260045260246000fd5b600060208284031215610b2357600080fd5b6105df8261089b565b6000808335601e19843603018112610b4357600080fd5b83018035915067ffffffffffffffff821115610b5e57600080fd5b60200191503681900382131561093b57600080fd5b8183526000602080850194508260005b85811015610baf576001600160a01b03610b9c8361087f565b1687529582019590820190600101610b83565b509495945050505050565b8183526000602080850194508260005b85811015610baf576001600160e01b0319610be48361089b565b1687529582019590820190600101610bca565b81835281816020850137506000828201602090810191909152601f909101601f19169091010190565b606081526000610c3460608301888a610b73565b602083820381850152610c4882888a610bba565b84810360408601528581529150808201600586901b830182018760005b88811015610cd457858303601f190184528135368b9003601e19018112610c8b57600080fd5b8a01803567ffffffffffffffff811115610ca457600080fd5b8036038c1315610cb357600080fd5b610cc08582898501610bf7565b958701959450505090840190600101610c65565b50909c9b505050505050505050505050565b604081526000610cfa604083018688610b73565b8281036020840152610d0d818587610bba565b979650505050505050565b600082821015610d3857634e487b7160e01b600052601160045260246000fd5b500390565b634e487b7160e01b600052603160045260246000fdfea2646970667358221220ef83d1347c0cc84b1536f11e05783fa43278ee8c2226ca71dcac260d4cdc6a4064736f6c634300080d0033",
  "devdoc": {
    "author": "BootNode",
    "details": "Registers the functions that will be allowed to be executed by assets delegates. Functions are grouped by target contract and asset collection.",
    "kind": "dev",
    "methods": {
      "add(address,address[],bytes4[],string[])": {
        "params": {
          "_collection": "- The asset collection address.",
          "_contracts": "- The target contract addresses.",
          "_selectors": "- The allowed function selectors."
        }
      },
      "isAllowedFunction(address,address,bytes4)": {
        "params": {
          "_collection": "- The owner's address.",
          "_contract": "- The owner's address.",
          "_selector": "- The owner's address."
        }
      },
      "owner()": {
        "details": "Returns the address of the current owner."
      },
      "remove(address,address[],bytes4[])": {
        "params": {
          "_collection": "- The owner's address.",
          "_contracts": "- The owner's address.",
          "_selectors": "- The owner's address."
        }
      },
      "renounceOwnership()": {
        "details": "Leaves the contract without owner. It will not be possible to call `onlyOwner` functions anymore. Can only be called by the current owner. NOTE: Renouncing ownership will leave the contract without an owner, thereby removing any functionality that is only available to the owner."
      },
      "transferOwnership(address)": {
        "details": "Transfers ownership of the contract to a new account (`newOwner`). Can only be called by the current owner."
      }
    },
    "title": "DelegationRecipes",
    "version": 1
  },
  "userdoc": {
    "kind": "user",
    "methods": {
      "add(address,address[],bytes4[],string[])": {
        "notice": "Adds a group of allowed functions to a asset collection."
      },
      "isAllowedFunction(address,address,bytes4)": {
        "notice": "Checks if a function is allowed for a collection."
      },
      "remove(address,address[],bytes4[])": {
        "notice": "Removes a group of allowed functions to a collection."
      }
    },
    "version": 1
  },
  "storageLayout": {
    "storage": [
      {
        "astId": 2596,
        "contract": "src/DelegationRecipes.sol:DelegationRecipes",
        "label": "_owner",
        "offset": 0,
        "slot": "0",
        "type": "t_address"
      },
      {
        "astId": 9551,
        "contract": "src/DelegationRecipes.sol:DelegationRecipes",
        "label": "functionByCollection",
        "offset": 0,
        "slot": "1",
        "type": "t_mapping(t_address,t_struct(Bytes32Set)6760_storage)"
      },
      {
        "astId": 9555,
        "contract": "src/DelegationRecipes.sol:DelegationRecipes",
        "label": "functionDescriptions",
        "offset": 0,
        "slot": "2",
        "type": "t_mapping(t_bytes32,t_string_storage)"
      }
    ],
    "types": {
      "t_address": {
        "encoding": "inplace",
        "label": "address",
        "numberOfBytes": "20"
      },
      "t_array(t_bytes32)dyn_storage": {
        "base": "t_bytes32",
        "encoding": "dynamic_array",
        "label": "bytes32[]",
        "numberOfBytes": "32"
      },
      "t_bytes32": {
        "encoding": "inplace",
        "label": "bytes32",
        "numberOfBytes": "32"
      },
      "t_mapping(t_address,t_struct(Bytes32Set)6760_storage)": {
        "encoding": "mapping",
        "key": "t_address",
        "label": "mapping(address => struct EnumerableSet.Bytes32Set)",
        "numberOfBytes": "32",
        "value": "t_struct(Bytes32Set)6760_storage"
      },
      "t_mapping(t_bytes32,t_string_storage)": {
        "encoding": "mapping",
        "key": "t_bytes32",
        "label": "mapping(bytes32 => string)",
        "numberOfBytes": "32",
        "value": "t_string_storage"
      },
      "t_mapping(t_bytes32,t_uint256)": {
        "encoding": "mapping",
        "key": "t_bytes32",
        "label": "mapping(bytes32 => uint256)",
        "numberOfBytes": "32",
        "value": "t_uint256"
      },
      "t_string_storage": {
        "encoding": "bytes",
        "label": "string",
        "numberOfBytes": "32"
      },
      "t_struct(Bytes32Set)6760_storage": {
        "encoding": "inplace",
        "label": "struct EnumerableSet.Bytes32Set",
        "members": [
          {
            "astId": 6759,
            "contract": "src/DelegationRecipes.sol:DelegationRecipes",
            "label": "_inner",
            "offset": 0,
            "slot": "0",
            "type": "t_struct(Set)6566_storage"
          }
        ],
        "numberOfBytes": "64"
      },
      "t_struct(Set)6566_storage": {
        "encoding": "inplace",
        "label": "struct EnumerableSet.Set",
        "members": [
          {
            "astId": 6561,
            "contract": "src/DelegationRecipes.sol:DelegationRecipes",
            "label": "_values",
            "offset": 0,
            "slot": "0",
            "type": "t_array(t_bytes32)dyn_storage"
          },
          {
            "astId": 6565,
            "contract": "src/DelegationRecipes.sol:DelegationRecipes",
            "label": "_indexes",
            "offset": 0,
            "slot": "1",
            "type": "t_mapping(t_bytes32,t_uint256)"
          }
        ],
        "numberOfBytes": "64"
      },
      "t_uint256": {
        "encoding": "inplace",
        "label": "uint256",
        "numberOfBytes": "32"
      }
    }
  }
}