{
  "address": "0x8B79e21a5Ad213C539C975827812324897B72f1b",
  "abi": [
    {
      "inputs": [
        {
          "internalType": "address",
          "name": "_gnosisSafeProxyFactory",
          "type": "address"
        },
        {
          "internalType": "address",
          "name": "_singleton",
          "type": "address"
        },
        {
          "internalType": "address",
          "name": "_compatibilityFallbackHandler",
          "type": "address"
        },
        {
          "internalType": "address",
          "name": "_guardBeacon",
          "type": "address"
        },
        {
          "internalType": "address",
          "name": "_ownerBeacon",
          "type": "address"
        },
        {
          "internalType": "address",
          "name": "_registry",
          "type": "address"
        }
      ],
      "stateMutability": "nonpayable",
      "type": "constructor"
    },
    {
      "anonymous": false,
      "inputs": [
        {
          "indexed": true,
          "internalType": "address",
          "name": "safe",
          "type": "address"
        },
        {
          "indexed": true,
          "internalType": "address",
          "name": "owner",
          "type": "address"
        },
        {
          "indexed": true,
          "internalType": "address",
          "name": "delegationOwner",
          "type": "address"
        },
        {
          "indexed": false,
          "internalType": "address",
          "name": "delegationGuard",
          "type": "address"
        },
        {
          "indexed": false,
          "internalType": "address",
          "name": "sender",
          "type": "address"
        }
      ],
      "name": "WalletDeployed",
      "type": "event"
    },
    {
      "inputs": [
        {
          "internalType": "address",
          "name": "_delegationController",
          "type": "address"
        },
        {
          "internalType": "address",
          "name": "_lockController",
          "type": "address"
        }
      ],
      "name": "deploy",
      "outputs": [
        {
          "internalType": "address",
          "name": "",
          "type": "address"
        },
        {
          "internalType": "address",
          "name": "",
          "type": "address"
        },
        {
          "internalType": "address",
          "name": "",
          "type": "address"
        }
      ],
      "stateMutability": "nonpayable",
      "type": "function"
    },
    {
      "inputs": [
        {
          "internalType": "address",
          "name": "_owner",
          "type": "address"
        },
        {
          "internalType": "address",
          "name": "_delegationController",
          "type": "address"
        },
        {
          "internalType": "address",
          "name": "_lockController",
          "type": "address"
        }
      ],
      "name": "deployFor",
      "outputs": [
        {
          "internalType": "address",
          "name": "",
          "type": "address"
        },
        {
          "internalType": "address",
          "name": "",
          "type": "address"
        },
        {
          "internalType": "address",
          "name": "",
          "type": "address"
        }
      ],
      "stateMutability": "nonpayable",
      "type": "function"
    }
  ],
  "transactionHash": "0xd40975575db9204a3cedc0220f5747e68ccf7ddf37d808641b234224c2b31b78",
  "args": [
    "0xa6B71E26C5e0845f74c812102Ca7114b6a896AB2",
    "0xd9Db270c1B5E3Bd161E8c8503c55cEABeE709552",
    "0xf48f2B2d2a534e402487b3ee7C18c33Aec0Fe5e4",
    "0xc0bb466366D3148Ad39e6c8f68C7759E1a09B36A",
    "0xc12a9e8143eb7663c1c1ba4d7b54ee419d8fc6a8",
    "0xda74d3Fd803017013E39EdD9b7082B6E181eBa56"
  ],
  "numDeployments": 4,
  "solcInputHash": "dab2e1279e4220b56ef064ca69df6f31",
  "bytecode": "0x61014060405234801561001157600080fd5b506040516111cc3803806111cc8339810160408190526100309161007b565b6001600160a01b0395861660805293851660a05291841660c052831660e05282166101005216610120526100ef565b80516001600160a01b038116811461007657600080fd5b919050565b60008060008060008060c0878903121561009457600080fd5b61009d8761005f565b95506100ab6020880161005f565b94506100b96040880161005f565b93506100c76060880161005f565b92506100d56080880161005f565b91506100e360a0880161005f565b90509295509295509295565b60805160a05160c05160e051610100516101205161109061013c60003960006104500152600061017801526000610325015260006102930152600060f20152600060c401526110906000f3fe60806040523480156200001157600080fd5b50600436106200003a5760003560e01c80634e15e15a146200003f578063545e7c611462000081575b600080fd5b620000566200005036600462000555565b62000098565b604080516001600160a01b039485168152928416602084015292168183015290519081900360600190f35b6200005662000092366004620005a7565b6200050f565b60408051600080825260208201928390526361b69abd60e01b9092528190819081906001600160a01b037f000000000000000000000000000000000000000000000000000000000000000016906361b69abd906200011c907f000000000000000000000000000000000000000000000000000000000000000090602481016200062d565b6020604051808303816000875af11580156200013c573d6000803e3d6000fd5b505050506040513d601f19601f820116820180604052508101906200016291906200065b565b60408051600080825260208201928390529293507f000000000000000000000000000000000000000000000000000000000000000091620001a3906200052e565b620001b09291906200062d565b604051809103906000f080158015620001cd573d6000803e3d6000fd5b50604080516002808252606082018352929350600092909160208301908036833701905050905088816000815181106200020b576200020b62000682565b60200260200101906001600160a01b031690816001600160a01b031681525050818160018151811062000242576200024262000682565b6001600160a01b039283166020918202929092010152831663b63e800d8260016000806040519080825280601f01601f19166020018201604052801562000290576020820181803683370190505b507f000000000000000000000000000000000000000000000000000000000000000060008060006040518963ffffffff1660e01b8152600401620002dc98979695949392919062000698565b600060405180830381600087803b158015620002f757600080fd5b505af11580156200030c573d6000803e3d6000fd5b5050604051630a2ca2bd60e11b81526001600160a01b037f00000000000000000000000000000000000000000000000000000000000000008116600483015286811660248301528c811660448301528b811660648301528a8116608483015285935083169150631459457a9060a401600060405180830381600087803b1580156200039657600080fd5b505af1158015620003ab573d6000803e3d6000fd5b505050506000816001600160a01b0316637ceab3b16040518163ffffffff1660e01b8152600401602060405180830381865afa158015620003f0573d6000803e3d6000fd5b505050506040513d601f19601f820116820180604052508101906200041691906200065b565b60405163fe6a42f160e01b81526001600160a01b0387811660048301528d81166024830152868116604483015280831660648301529192507f00000000000000000000000000000000000000000000000000000000000000009091169063fe6a42f190608401600060405180830381600087803b1580156200049757600080fd5b505af1158015620004ac573d6000803e3d6000fd5b5050604080516001600160a01b03858116825233602083015280891694508f811693508916917fae9bc6b209db94b26a6718535f03da657b494af1a5ae92975b467474e8e970a5910160405180910390a4939a9299509297509095505050505050565b60008060006200052133868662000098565b9250925092509250925092565b610900806200075b83390190565b6001600160a01b03811681146200055257600080fd5b50565b6000806000606084860312156200056b57600080fd5b833562000578816200053c565b925060208401356200058a816200053c565b915060408401356200059c816200053c565b809150509250925092565b60008060408385031215620005bb57600080fd5b8235620005c8816200053c565b91506020830135620005da816200053c565b809150509250929050565b6000815180845260005b818110156200060d57602081850181015186830182015201620005ef565b506000602082860101526020601f19601f83011685010191505092915050565b6001600160a01b03831681526040602082018190526000906200065390830184620005e5565b949350505050565b6000602082840312156200066e57600080fd5b81516200067b816200053c565b9392505050565b634e487b7160e01b600052603260045260246000fd5b6101008082528951908201819052600090610120830190602090818d01845b82811015620006de5781516001600160a01b031685529383019390830190600101620006b7565b50505083018a90526001600160a01b03891660408401528281036060840152620007098189620005e5565b9150506200072260808301876001600160a01b03169052565b6001600160a01b03851660a08301528360c08301526200074d60e08301846001600160a01b03169052565b999850505050505050505056fe60806040526040516109003803806109008339810160408190526100229161045b565b61002e82826000610035565b5050610585565b61003e83610100565b6040516001600160a01b038416907f1cf3b03a6cf19fa2baba4df148e9dcabedea7f8a5c07840e207e5c089be95d3e90600090a260008251118061007f5750805b156100fb576100f9836001600160a01b0316635c60da1b6040518163ffffffff1660e01b8152600401602060405180830381865afa1580156100c5573d6000803e3d6000fd5b505050506040513d601f19601f820116820180604052508101906100e9919061051b565b836102a360201b6100291760201c565b505b505050565b610113816102cf60201b6100551760201c565b6101725760405162461bcd60e51b815260206004820152602560248201527f455243313936373a206e657720626561636f6e206973206e6f74206120636f6e6044820152641d1c9858dd60da1b60648201526084015b60405180910390fd5b6101e6816001600160a01b0316635c60da1b6040518163ffffffff1660e01b8152600401602060405180830381865afa1580156101b3573d6000803e3d6000fd5b505050506040513d601f19601f820116820180604052508101906101d7919061051b565b6102cf60201b6100551760201c565b61024b5760405162461bcd60e51b815260206004820152603060248201527f455243313936373a20626561636f6e20696d706c656d656e746174696f6e206960448201526f1cc81b9bdd08184818dbdb9d1c9858dd60821b6064820152608401610169565b806102827fa3f0ad74e5423aebfd80d3ef4346578335a9a72aeaee59ff6cb3582b35133d5060001b6102de60201b6100641760201c565b80546001600160a01b0319166001600160a01b039290921691909117905550565b60606102c883836040518060600160405280602781526020016108d9602791396102e1565b9392505050565b6001600160a01b03163b151590565b90565b6060600080856001600160a01b0316856040516102fe9190610536565b600060405180830381855af49150503d8060008114610339576040519150601f19603f3d011682016040523d82523d6000602084013e61033e565b606091505b5090925090506103508683838761035a565b9695505050505050565b606083156103c95782516000036103c2576001600160a01b0385163b6103c25760405162461bcd60e51b815260206004820152601d60248201527f416464726573733a2063616c6c20746f206e6f6e2d636f6e74726163740000006044820152606401610169565b50816103d3565b6103d383836103db565b949350505050565b8151156103eb5781518083602001fd5b8060405162461bcd60e51b81526004016101699190610552565b80516001600160a01b038116811461041c57600080fd5b919050565b634e487b7160e01b600052604160045260246000fd5b60005b8381101561045257818101518382015260200161043a565b50506000910152565b6000806040838503121561046e57600080fd5b61047783610405565b60208401519092506001600160401b038082111561049457600080fd5b818501915085601f8301126104a857600080fd5b8151818111156104ba576104ba610421565b604051601f8201601f19908116603f011681019083821181831017156104e2576104e2610421565b816040528281528860208487010111156104fb57600080fd5b61050c836020830160208801610437565b80955050505050509250929050565b60006020828403121561052d57600080fd5b6102c882610405565b60008251610548818460208701610437565b9190910192915050565b6020815260008251806020840152610571816040850160208701610437565b601f01601f19169190910160400192915050565b610345806105946000396000f3fe60806040523661001357610011610017565b005b6100115b610027610022610067565b610100565b565b606061004e83836040518060600160405280602781526020016102e960279139610124565b9392505050565b6001600160a01b03163b151590565b90565b600061009a7fa3f0ad74e5423aebfd80d3ef4346578335a9a72aeaee59ff6cb3582b35133d50546001600160a01b031690565b6001600160a01b0316635c60da1b6040518163ffffffff1660e01b8152600401602060405180830381865afa1580156100d7573d6000803e3d6000fd5b505050506040513d601f19601f820116820180604052508101906100fb919061024c565b905090565b3660008037600080366000845af43d6000803e80801561011f573d6000f35b3d6000fd5b6060600080856001600160a01b0316856040516101419190610299565b600060405180830381855af49150503d806000811461017c576040519150601f19603f3d011682016040523d82523d6000602084013e610181565b606091505b50915091506101928683838761019c565b9695505050505050565b60608315610210578251600003610209576001600160a01b0385163b6102095760405162461bcd60e51b815260206004820152601d60248201527f416464726573733a2063616c6c20746f206e6f6e2d636f6e747261637400000060448201526064015b60405180910390fd5b508161021a565b61021a8383610222565b949350505050565b8151156102325781518083602001fd5b8060405162461bcd60e51b815260040161020091906102b5565b60006020828403121561025e57600080fd5b81516001600160a01b038116811461004e57600080fd5b60005b83811015610290578181015183820152602001610278565b50506000910152565b600082516102ab818460208701610275565b9190910192915050565b60208152600082518060208401526102d4816040850160208701610275565b601f01601f1916919091016040019291505056fe416464726573733a206c6f772d6c6576656c2064656c65676174652063616c6c206661696c6564a264697066735822122022a6bf5ebbb7518c40e703958b5c8e4d70ca6715c1e1ccf9e9591bfc86e066d164736f6c63430008110033416464726573733a206c6f772d6c6576656c2064656c65676174652063616c6c206661696c6564a2646970667358221220baea2a2c9e56c1b190c5c06afe89c74b82fd52f9329cbc40586461568dc3ce1d64736f6c63430008110033",
  "devdoc": {
    "author": "BootNode",
    "details": "Factory contract for deploying and configuring a new Delegation Wallet Deploys a GnosisSafe, a DelegationOwner and a DelegationGuard, sets Safe wallet threshold to 1, the DelegationOwner contract as owner together with the deployer and the DelegationGuard as the Safe's guard.",
    "kind": "dev",
    "methods": {
      "deployFor(address,address,address)": {
        "params": {
          "_owner": "- The owner's address."
        }
      }
    },
    "title": "DelegationWalletFactory",
    "version": 1
  },
  "userdoc": {
    "kind": "user",
    "methods": {
      "deploy(address,address)": {
        "notice": "Deploys a new DelegationWallet with the msg.sender as the owner."
      },
      "deployFor(address,address,address)": {
        "notice": "Deploys a new DelegationWallet for a given owner."
      }
    },
    "version": 1
  },
  "storageLayout": {
    "storage": [],
    "types": null
  }
}