{
  "address": "0xCFb4Ee8AC78e91105e54f18830a50C93C8B2004C",
  "abi": [
    {
      "inputs": [],
      "name": "DelegationWalletRegistry__onlyFactoryOrOwner",
      "type": "error"
    },
    {
      "inputs": [],
      "name": "DelegationWalletRegistry__setFactory_invalidAddress",
      "type": "error"
    },
    {
      "inputs": [],
      "name": "DelegationWalletRegistry__setWallet_invalidDelegationOwnerAddress",
      "type": "error"
    },
    {
      "inputs": [],
      "name": "DelegationWalletRegistry__setWallet_invalidGuardAddress",
      "type": "error"
    },
    {
      "inputs": [],
      "name": "DelegationWalletRegistry__setWallet_invalidOwnerAddress",
      "type": "error"
    },
    {
      "inputs": [],
      "name": "DelegationWalletRegistry__setWallet_invalidWalletAddress",
      "type": "error"
    },
    {
      "anonymous": false,
      "inputs": [
        {
          "indexed": true,
          "internalType": "address",
          "name": "previousOwner",
          "type": "address"
        },
        {
          "indexed": true,
          "internalType": "address",
          "name": "newOwner",
          "type": "address"
        }
      ],
      "name": "OwnershipTransferred",
      "type": "event"
    },
    {
      "inputs": [],
      "name": "delegationWalletFactory",
      "outputs": [
        {
          "internalType": "address",
          "name": "",
          "type": "address"
        }
      ],
      "stateMutability": "view",
      "type": "function"
    },
    {
      "inputs": [
        {
          "internalType": "address",
          "name": "_owner",
          "type": "address"
        }
      ],
      "name": "getOwnerWalletAddresses",
      "outputs": [
        {
          "internalType": "address[]",
          "name": "",
          "type": "address[]"
        }
      ],
      "stateMutability": "view",
      "type": "function"
    },
    {
      "inputs": [
        {
          "internalType": "address",
          "name": "_owner",
          "type": "address"
        },
        {
          "internalType": "uint256",
          "name": "_index",
          "type": "uint256"
        }
      ],
      "name": "getOwnerWalletAt",
      "outputs": [
        {
          "components": [
            {
              "internalType": "address",
              "name": "wallet",
              "type": "address"
            },
            {
              "internalType": "address",
              "name": "owner",
              "type": "address"
            },
            {
              "internalType": "address",
              "name": "delegationOwner",
              "type": "address"
            },
            {
              "internalType": "address",
              "name": "delegationGuard",
              "type": "address"
            }
          ],
          "internalType": "struct IDelegationWalletRegistry.Wallet",
          "name": "",
          "type": "tuple"
        }
      ],
      "stateMutability": "view",
      "type": "function"
    },
    {
      "inputs": [
        {
          "internalType": "address",
          "name": "_wallet",
          "type": "address"
        }
      ],
      "name": "getWallet",
      "outputs": [
        {
          "components": [
            {
              "internalType": "address",
              "name": "wallet",
              "type": "address"
            },
            {
              "internalType": "address",
              "name": "owner",
              "type": "address"
            },
            {
              "internalType": "address",
              "name": "delegationOwner",
              "type": "address"
            },
            {
              "internalType": "address",
              "name": "delegationGuard",
              "type": "address"
            }
          ],
          "internalType": "struct IDelegationWalletRegistry.Wallet",
          "name": "",
          "type": "tuple"
        }
      ],
      "stateMutability": "view",
      "type": "function"
    },
    {
      "inputs": [],
      "name": "owner",
      "outputs": [
        {
          "internalType": "address",
          "name": "",
          "type": "address"
        }
      ],
      "stateMutability": "view",
      "type": "function"
    },
    {
      "inputs": [],
      "name": "renounceOwnership",
      "outputs": [],
      "stateMutability": "nonpayable",
      "type": "function"
    },
    {
      "inputs": [
        {
          "internalType": "address",
          "name": "_delegationWalletFactory",
          "type": "address"
        }
      ],
      "name": "setFactory",
      "outputs": [],
      "stateMutability": "nonpayable",
      "type": "function"
    },
    {
      "inputs": [
        {
          "internalType": "address",
          "name": "_wallet",
          "type": "address"
        },
        {
          "internalType": "address",
          "name": "_owner",
          "type": "address"
        },
        {
          "internalType": "address",
          "name": "_delegationOwner",
          "type": "address"
        },
        {
          "internalType": "address",
          "name": "_delegationGuard",
          "type": "address"
        }
      ],
      "name": "setWallet",
      "outputs": [],
      "stateMutability": "nonpayable",
      "type": "function"
    },
    {
      "inputs": [
        {
          "internalType": "address",
          "name": "newOwner",
          "type": "address"
        }
      ],
      "name": "transferOwnership",
      "outputs": [],
      "stateMutability": "nonpayable",
      "type": "function"
    }
  ],
  "transactionHash": "0xb8a52860984d28dcac55e3145c75b7166281b60f7d1cbfd336a880a713ee5433",
  "args": [],
  "numDeployments": 1,
  "solcInputHash": "a56c6ee922d4ac6e80286fa9713dcc7e",
  "bytecode": "0x608060405234801561001057600080fd5b5061001a3361001f565b61006f565b600080546001600160a01b038381166001600160a01b0319831681178455604051919092169283917f8be0079c531659141344cd1fd0a4f28419497f9722a3daafe3b4186f6b6457e09190a35050565b61085d8061007e6000396000f3fe608060405234801561001057600080fd5b50600436106100935760003560e01c80638da5cb5b116100665780638da5cb5b146101a3578063d2fe0ba6146101c8578063f2fde38b146101db578063fbd72d0e146101ee578063fe6a42f11461020157600080fd5b806304d0a6471461009857806355635253146101665780635bb4780814610186578063715018a61461019b575b600080fd5b61011a6100a636600461072b565b60408051608080820183526000808352602080840182905283850182905260609384018290526001600160a01b039586168252600180825291859020855193840186528054871684529182015486169083015260028101548516938201939093526003909201549092169181019190915290565b60405161015d919081516001600160a01b039081168252602080840151821690830152604080840151821690830152606092830151169181019190915260800190565b60405180910390f35b61017961017436600461072b565b610214565b60405161015d9190610746565b61019961019436600461072b565b61023e565b005b61019961028f565b6000546001600160a01b03165b6040516001600160a01b03909116815260200161015d565b6003546101b0906001600160a01b031681565b6101996101e936600461072b565b6102a3565b61011a6101fc366004610793565b610321565b61019961020f3660046107bd565b6103c2565b6001600160a01b03811660009081526002602052604090206060906102389061055b565b92915050565b61024661056f565b6001600160a01b03811661026d576040516339c833f360e21b815260040160405180910390fd5b600380546001600160a01b0319166001600160a01b0392909216919091179055565b61029761056f565b6102a160006105c9565b565b6102ab61056f565b6001600160a01b0381166103155760405162461bcd60e51b815260206004820152602660248201527f4f776e61626c653a206e6577206f776e657220697320746865207a65726f206160448201526564647265737360d01b60648201526084015b60405180910390fd5b61031e816105c9565b50565b6040805160808101825260008082526020808301829052828401829052606083018290526001600160a01b03861682526002905291822090916001916103679085610619565b6001600160a01b03908116825260208083019390935260409182016000208251608081018452815483168152600182015483169481019490945260028101548216928401929092526003909101541660608201529392505050565b6003546001600160a01b0316336001600160a01b0316141580156103f157506000546001600160a01b03163314155b1561040f5760405163d76e161b60e01b815260040160405180910390fd5b6001600160a01b03841661043657604051636e09d31560e11b815260040160405180910390fd5b6001600160a01b03831661045d5760405163665196b160e01b815260040160405180910390fd5b6001600160a01b0382166104845760405163f681232f60e01b815260040160405180910390fd5b6001600160a01b0381166104ab5760405163594211a560e11b815260040160405180910390fd5b604080516080810182526001600160a01b0386811680835286821660208085018281528885168688019081528886166060880190815260009586526001808552898720985189546001600160a01b0319908116918a16919091178a55935190890180548516918916919091179055905160028089018054851692891692909217909155905160039097018054909216969095169590951790945581529152206105549085610625565b5050505050565b606060006105688361063a565b9392505050565b6000546001600160a01b031633146102a15760405162461bcd60e51b815260206004820181905260248201527f4f776e61626c653a2063616c6c6572206973206e6f7420746865206f776e6572604482015260640161030c565b600080546001600160a01b038381166001600160a01b0319831681178455604051919092169283917f8be0079c531659141344cd1fd0a4f28419497f9722a3daafe3b4186f6b6457e09190a35050565b60006105688383610696565b6000610568836001600160a01b0384166106c0565b60608160000180548060200260200160405190810160405280929190818152602001828054801561068a57602002820191906000526020600020905b815481526020019060010190808311610676575b50505050509050919050565b60008260000182815481106106ad576106ad610811565b9060005260206000200154905092915050565b600081815260018301602052604081205461070757508154600181810184556000848152602080822090930184905584548482528286019093526040902091909155610238565b506000610238565b80356001600160a01b038116811461072657600080fd5b919050565b60006020828403121561073d57600080fd5b6105688261070f565b6020808252825182820181905260009190848201906040850190845b818110156107875783516001600160a01b031683529284019291840191600101610762565b50909695505050505050565b600080604083850312156107a657600080fd5b6107af8361070f565b946020939093013593505050565b600080600080608085870312156107d357600080fd5b6107dc8561070f565b93506107ea6020860161070f565b92506107f86040860161070f565b91506108066060860161070f565b905092959194509250565b634e487b7160e01b600052603260045260246000fdfea264697066735822122045fd60902c51dba163c92210c9b4e73be95958ccd18eca9e1b3909811dc64eeb64736f6c634300080d0033",
  "devdoc": {
    "kind": "dev",
    "methods": {
      "getOwnerWalletAddresses(address)": {
        "details": "Return the entire set in an array WARNING: This operation will copy the entire storage to memory, which can be quite expensive. This is designed to mostly be used by view accessors that are queried without any gas fees. Developers should keep in mind that this function has an unbounded cost, and using it as part of a state-changing function may render the function uncallable if the set grows to a point where copying to memory consumes too much gas to fit in a block."
      },
      "owner()": {
        "details": "Returns the address of the current owner."
      },
      "renounceOwnership()": {
        "details": "Leaves the contract without owner. It will not be possible to call `onlyOwner` functions anymore. Can only be called by the current owner. NOTE: Renouncing ownership will leave the contract without an owner, thereby removing any functionality that is only available to the owner."
      },
      "transferOwnership(address)": {
        "details": "Transfers ownership of the contract to a new account (`newOwner`). Can only be called by the current owner."
      }
    },
    "version": 1
  },
  "userdoc": {
    "kind": "user",
    "methods": {
      "delegationWalletFactory()": {
        "notice": "Address of the DelegationWalletFactory contract."
      }
    },
    "version": 1
  },
  "storageLayout": {
    "storage": [
      {
        "astId": 2596,
        "contract": "src/DelegationWalletRegistry.sol:DelegationWalletRegistry",
        "label": "_owner",
        "offset": 0,
        "slot": "0",
        "type": "t_address"
      },
      {
        "astId": 10038,
        "contract": "src/DelegationWalletRegistry.sol:DelegationWalletRegistry",
        "label": "wallets",
        "offset": 0,
        "slot": "1",
        "type": "t_mapping(t_address,t_struct(Wallet)10386_storage)"
      },
      {
        "astId": 10043,
        "contract": "src/DelegationWalletRegistry.sol:DelegationWalletRegistry",
        "label": "walletsByOwner",
        "offset": 0,
        "slot": "2",
        "type": "t_mapping(t_address,t_struct(AddressSet)6881_storage)"
      },
      {
        "astId": 10046,
        "contract": "src/DelegationWalletRegistry.sol:DelegationWalletRegistry",
        "label": "delegationWalletFactory",
        "offset": 0,
        "slot": "3",
        "type": "t_address"
      }
    ],
    "types": {
      "t_address": {
        "encoding": "inplace",
        "label": "address",
        "numberOfBytes": "20"
      },
      "t_array(t_bytes32)dyn_storage": {
        "base": "t_bytes32",
        "encoding": "dynamic_array",
        "label": "bytes32[]",
        "numberOfBytes": "32"
      },
      "t_bytes32": {
        "encoding": "inplace",
        "label": "bytes32",
        "numberOfBytes": "32"
      },
      "t_mapping(t_address,t_struct(AddressSet)6881_storage)": {
        "encoding": "mapping",
        "key": "t_address",
        "label": "mapping(address => struct EnumerableSet.AddressSet)",
        "numberOfBytes": "32",
        "value": "t_struct(AddressSet)6881_storage"
      },
      "t_mapping(t_address,t_struct(Wallet)10386_storage)": {
        "encoding": "mapping",
        "key": "t_address",
        "label": "mapping(address => struct IDelegationWalletRegistry.Wallet)",
        "numberOfBytes": "32",
        "value": "t_struct(Wallet)10386_storage"
      },
      "t_mapping(t_bytes32,t_uint256)": {
        "encoding": "mapping",
        "key": "t_bytes32",
        "label": "mapping(bytes32 => uint256)",
        "numberOfBytes": "32",
        "value": "t_uint256"
      },
      "t_struct(AddressSet)6881_storage": {
        "encoding": "inplace",
        "label": "struct EnumerableSet.AddressSet",
        "members": [
          {
            "astId": 6880,
            "contract": "src/DelegationWalletRegistry.sol:DelegationWalletRegistry",
            "label": "_inner",
            "offset": 0,
            "slot": "0",
            "type": "t_struct(Set)6566_storage"
          }
        ],
        "numberOfBytes": "64"
      },
      "t_struct(Set)6566_storage": {
        "encoding": "inplace",
        "label": "struct EnumerableSet.Set",
        "members": [
          {
            "astId": 6561,
            "contract": "src/DelegationWalletRegistry.sol:DelegationWalletRegistry",
            "label": "_values",
            "offset": 0,
            "slot": "0",
            "type": "t_array(t_bytes32)dyn_storage"
          },
          {
            "astId": 6565,
            "contract": "src/DelegationWalletRegistry.sol:DelegationWalletRegistry",
            "label": "_indexes",
            "offset": 0,
            "slot": "1",
            "type": "t_mapping(t_bytes32,t_uint256)"
          }
        ],
        "numberOfBytes": "64"
      },
      "t_struct(Wallet)10386_storage": {
        "encoding": "inplace",
        "label": "struct IDelegationWalletRegistry.Wallet",
        "members": [
          {
            "astId": 10379,
            "contract": "src/DelegationWalletRegistry.sol:DelegationWalletRegistry",
            "label": "wallet",
            "offset": 0,
            "slot": "0",
            "type": "t_address"
          },
          {
            "astId": 10381,
            "contract": "src/DelegationWalletRegistry.sol:DelegationWalletRegistry",
            "label": "owner",
            "offset": 0,
            "slot": "1",
            "type": "t_address"
          },
          {
            "astId": 10383,
            "contract": "src/DelegationWalletRegistry.sol:DelegationWalletRegistry",
            "label": "delegationOwner",
            "offset": 0,
            "slot": "2",
            "type": "t_address"
          },
          {
            "astId": 10385,
            "contract": "src/DelegationWalletRegistry.sol:DelegationWalletRegistry",
            "label": "delegationGuard",
            "offset": 0,
            "slot": "3",
            "type": "t_address"
          }
        ],
        "numberOfBytes": "128"
      },
      "t_uint256": {
        "encoding": "inplace",
        "label": "uint256",
        "numberOfBytes": "32"
      }
    }
  }
}