{
  "address": "0x4e9Ca8a854a33a45e4C7931D23e88d4605Cfc86b",
  "abi": [
    {
      "inputs": [
        {
          "internalType": "address",
          "name": "_cryptoPunks",
          "type": "address"
        },
        {
          "internalType": "address",
          "name": "_recipes",
          "type": "address"
        },
        {
          "internalType": "address",
          "name": "_allowedControllers",
          "type": "address"
        }
      ],
      "stateMutability": "nonpayable",
      "type": "constructor"
    },
    {
      "inputs": [],
      "name": "DelegationGuard__initialize_invalidGuardBeacon",
      "type": "error"
    },
    {
      "inputs": [],
      "name": "DelegationGuard__initialize_invalidOwner",
      "type": "error"
    },
    {
      "inputs": [],
      "name": "DelegationGuard__initialize_invalidRecipes",
      "type": "error"
    },
    {
      "inputs": [],
      "name": "DelegationGuard__initialize_invalidSafe",
      "type": "error"
    },
    {
      "inputs": [],
      "name": "DelegationOwner__changeClaimDate_invalidClaimDate",
      "type": "error"
    },
    {
      "inputs": [],
      "name": "DelegationOwner__checkClaimDate_assetDelegatedLonger",
      "type": "error"
    },
    {
      "inputs": [],
      "name": "DelegationOwner__checkClaimDate_signatureDelegatedLonger",
      "type": "error"
    },
    {
      "inputs": [],
      "name": "DelegationOwner__checkOwnedAndNotApproved_assetApproved",
      "type": "error"
    },
    {
      "inputs": [],
      "name": "DelegationOwner__checkOwnedAndNotApproved_assetNotOwned",
      "type": "error"
    },
    {
      "inputs": [],
      "name": "DelegationOwner__claimAsset_assetNotClaimable",
      "type": "error"
    },
    {
      "inputs": [],
      "name": "DelegationOwner__claimAsset_assetNotLocked",
      "type": "error"
    },
    {
      "inputs": [],
      "name": "DelegationOwner__claimAsset_notSuccess",
      "type": "error"
    },
    {
      "inputs": [],
      "name": "DelegationOwner__delegateSignature_currentlyDelegated",
      "type": "error"
    },
    {
      "inputs": [],
      "name": "DelegationOwner__delegateSignature_invalidArity",
      "type": "error"
    },
    {
      "inputs": [],
      "name": "DelegationOwner__delegateSignature_invalidDelegatee",
      "type": "error"
    },
    {
      "inputs": [],
      "name": "DelegationOwner__delegateSignature_invalidDuration",
      "type": "error"
    },
    {
      "inputs": [
        {
          "internalType": "address",
          "name": "asset",
          "type": "address"
        },
        {
          "internalType": "uint256",
          "name": "id",
          "type": "uint256"
        }
      ],
      "name": "DelegationOwner__delegateSignature_invalidExpiry",
      "type": "error"
    },
    {
      "inputs": [],
      "name": "DelegationOwner__delegate_currentlyDelegated",
      "type": "error"
    },
    {
      "inputs": [],
      "name": "DelegationOwner__delegate_invalidDelegatee",
      "type": "error"
    },
    {
      "inputs": [],
      "name": "DelegationOwner__delegate_invalidDuration",
      "type": "error"
    },
    {
      "inputs": [],
      "name": "DelegationOwner__delegate_invalidExpiry",
      "type": "error"
    },
    {
      "inputs": [],
      "name": "DelegationOwner__delegationCreatorChecks_notDelegated",
      "type": "error"
    },
    {
      "inputs": [],
      "name": "DelegationOwner__delegationCreatorChecks_onlyDelegationCreator",
      "type": "error"
    },
    {
      "inputs": [],
      "name": "DelegationOwner__endDelegateSignature_invalidArity",
      "type": "error"
    },
    {
      "inputs": [],
      "name": "DelegationOwner__execTransaction_invalidDelegatee",
      "type": "error"
    },
    {
      "inputs": [],
      "name": "DelegationOwner__execTransaction_notAllowedFunction",
      "type": "error"
    },
    {
      "inputs": [],
      "name": "DelegationOwner__execTransaction_notDelegated",
      "type": "error"
    },
    {
      "inputs": [],
      "name": "DelegationOwner__execTransaction_notSuccess",
      "type": "error"
    },
    {
      "inputs": [],
      "name": "DelegationOwner__isValidSignature_invalidExecSig",
      "type": "error"
    },
    {
      "inputs": [],
      "name": "DelegationOwner__isValidSignature_invalidSigner",
      "type": "error"
    },
    {
      "inputs": [],
      "name": "DelegationOwner__isValidSignature_notDelegated",
      "type": "error"
    },
    {
      "inputs": [],
      "name": "DelegationOwner__lockAsset_assetLocked",
      "type": "error"
    },
    {
      "inputs": [],
      "name": "DelegationOwner__lockAsset_invalidClaimDate",
      "type": "error"
    },
    {
      "inputs": [],
      "name": "DelegationOwner__lockCreatorChecks_assetNotLocked",
      "type": "error"
    },
    {
      "inputs": [],
      "name": "DelegationOwner__lockCreatorChecks_onlyLockCreator",
      "type": "error"
    },
    {
      "inputs": [],
      "name": "DelegationOwner__onlyDelegationController",
      "type": "error"
    },
    {
      "inputs": [],
      "name": "DelegationOwner__onlyDelegationCreator",
      "type": "error"
    },
    {
      "inputs": [],
      "name": "DelegationOwner__onlyLockController",
      "type": "error"
    },
    {
      "inputs": [],
      "name": "DelegationOwner__onlyLockCreator",
      "type": "error"
    },
    {
      "inputs": [],
      "name": "DelegationOwner__onlyOwner",
      "type": "error"
    },
    {
      "inputs": [],
      "name": "DelegationOwner__onlySignatureDelegationCreator",
      "type": "error"
    },
    {
      "inputs": [],
      "name": "DelegationOwner__setDelegationController_notAllowedController",
      "type": "error"
    },
    {
      "inputs": [],
      "name": "DelegationOwner__setLockController_notAllowedController",
      "type": "error"
    },
    {
      "inputs": [],
      "name": "DelegationOwner__transferAsset_assetNotOwned",
      "type": "error"
    },
    {
      "anonymous": false,
      "inputs": [
        {
          "indexed": true,
          "internalType": "address",
          "name": "asset",
          "type": "address"
        },
        {
          "indexed": true,
          "internalType": "uint256",
          "name": "assetId",
          "type": "uint256"
        },
        {
          "indexed": false,
          "internalType": "uint256",
          "name": "claimDate",
          "type": "uint256"
        },
        {
          "indexed": true,
          "internalType": "address",
          "name": "lockController",
          "type": "address"
        }
      ],
      "name": "ChangeClaimDate",
      "type": "event"
    },
    {
      "anonymous": false,
      "inputs": [
        {
          "indexed": true,
          "internalType": "address",
          "name": "asset",
          "type": "address"
        },
        {
          "indexed": true,
          "internalType": "uint256",
          "name": "assetId",
          "type": "uint256"
        },
        {
          "indexed": true,
          "internalType": "address",
          "name": "receiver",
          "type": "address"
        }
      ],
      "name": "ClaimedAsset",
      "type": "event"
    },
    {
      "anonymous": false,
      "inputs": [
        {
          "indexed": false,
          "internalType": "uint256",
          "name": "from",
          "type": "uint256"
        },
        {
          "indexed": false,
          "internalType": "uint256",
          "name": "to",
          "type": "uint256"
        },
        {
          "indexed": true,
          "internalType": "address",
          "name": "delegatee",
          "type": "address"
        },
        {
          "indexed": false,
          "internalType": "address[]",
          "name": "assets",
          "type": "address[]"
        },
        {
          "indexed": false,
          "internalType": "uint256[]",
          "name": "assetIds",
          "type": "uint256[]"
        },
        {
          "indexed": false,
          "internalType": "address",
          "name": "delegationController",
          "type": "address"
        }
      ],
      "name": "DelegatedSignature",
      "type": "event"
    },
    {
      "anonymous": false,
      "inputs": [
        {
          "indexed": false,
          "internalType": "address[]",
          "name": "assets",
          "type": "address[]"
        },
        {
          "indexed": false,
          "internalType": "uint256[]",
          "name": "assetIds",
          "type": "uint256[]"
        },
        {
          "indexed": false,
          "internalType": "address",
          "name": "delegationController",
          "type": "address"
        }
      ],
      "name": "EndDelegatedSignature",
      "type": "event"
    },
    {
      "anonymous": false,
      "inputs": [
        {
          "indexed": true,
          "internalType": "address",
          "name": "asset",
          "type": "address"
        },
        {
          "indexed": true,
          "internalType": "uint256",
          "name": "assetId",
          "type": "uint256"
        },
        {
          "indexed": false,
          "internalType": "address",
          "name": "delegationController",
          "type": "address"
        }
      ],
      "name": "EndDelegation",
      "type": "event"
    },
    {
      "anonymous": false,
      "inputs": [
        {
          "indexed": false,
          "internalType": "uint8",
          "name": "version",
          "type": "uint8"
        }
      ],
      "name": "Initialized",
      "type": "event"
    },
    {
      "anonymous": false,
      "inputs": [
        {
          "indexed": true,
          "internalType": "address",
          "name": "asset",
          "type": "address"
        },
        {
          "indexed": true,
          "internalType": "uint256",
          "name": "assetId",
          "type": "uint256"
        },
        {
          "indexed": false,
          "internalType": "uint256",
          "name": "claimDate",
          "type": "uint256"
        },
        {
          "indexed": true,
          "internalType": "address",
          "name": "lockController",
          "type": "address"
        }
      ],
      "name": "LockedAsset",
      "type": "event"
    },
    {
      "anonymous": false,
      "inputs": [
        {
          "indexed": true,
          "internalType": "address",
          "name": "asset",
          "type": "address"
        },
        {
          "indexed": true,
          "internalType": "uint256",
          "name": "assetId",
          "type": "uint256"
        },
        {
          "indexed": false,
          "internalType": "uint256",
          "name": "from",
          "type": "uint256"
        },
        {
          "indexed": false,
          "internalType": "uint256",
          "name": "to",
          "type": "uint256"
        },
        {
          "indexed": true,
          "internalType": "address",
          "name": "delegatee",
          "type": "address"
        },
        {
          "indexed": false,
          "internalType": "address",
          "name": "delegationController",
          "type": "address"
        }
      ],
      "name": "NewDelegation",
      "type": "event"
    },
    {
      "anonymous": false,
      "inputs": [
        {
          "indexed": true,
          "internalType": "address",
          "name": "delegationController",
          "type": "address"
        },
        {
          "indexed": false,
          "internalType": "bool",
          "name": "allowed",
          "type": "bool"
        }
      ],
      "name": "SetDelegationController",
      "type": "event"
    },
    {
      "anonymous": false,
      "inputs": [
        {
          "indexed": true,
          "internalType": "address",
          "name": "lockController",
          "type": "address"
        },
        {
          "indexed": false,
          "internalType": "bool",
          "name": "allowed",
          "type": "bool"
        }
      ],
      "name": "SetLockController",
      "type": "event"
    },
    {
      "anonymous": false,
      "inputs": [
        {
          "indexed": true,
          "internalType": "address",
          "name": "asset",
          "type": "address"
        },
        {
          "indexed": true,
          "internalType": "uint256",
          "name": "assetId",
          "type": "uint256"
        },
        {
          "indexed": true,
          "internalType": "address",
          "name": "receiver",
          "type": "address"
        }
      ],
      "name": "TransferredAsset",
      "type": "event"
    },
    {
      "anonymous": false,
      "inputs": [
        {
          "indexed": true,
          "internalType": "address",
          "name": "asset",
          "type": "address"
        },
        {
          "indexed": true,
          "internalType": "uint256",
          "name": "assetId",
          "type": "uint256"
        },
        {
          "indexed": true,
          "internalType": "address",
          "name": "lockController",
          "type": "address"
        }
      ],
      "name": "UnlockedAsset",
      "type": "event"
    },
    {
      "inputs": [],
      "name": "GUARD_STORAGE_SLOT",
      "outputs": [
        {
          "internalType": "bytes32",
          "name": "",
          "type": "bytes32"
        }
      ],
      "stateMutability": "view",
      "type": "function"
    },
    {
      "inputs": [],
      "name": "allowedControllers",
      "outputs": [
        {
          "internalType": "contract IAllowedControllers",
          "name": "",
          "type": "address"
        }
      ],
      "stateMutability": "view",
      "type": "function"
    },
    {
      "inputs": [
        {
          "internalType": "address",
          "name": "_asset",
          "type": "address"
        },
        {
          "internalType": "uint256",
          "name": "_id",
          "type": "uint256"
        }
      ],
      "name": "assetId",
      "outputs": [
        {
          "internalType": "bytes32",
          "name": "",
          "type": "bytes32"
        }
      ],
      "stateMutability": "pure",
      "type": "function"
    },
    {
      "inputs": [
        {
          "internalType": "address",
          "name": "_asset",
          "type": "address"
        },
        {
          "internalType": "uint256",
          "name": "_id",
          "type": "uint256"
        },
        {
          "internalType": "uint256",
          "name": "_claimDate",
          "type": "uint256"
        }
      ],
      "name": "changeClaimDate",
      "outputs": [],
      "stateMutability": "nonpayable",
      "type": "function"
    },
    {
      "inputs": [
        {
          "internalType": "address",
          "name": "_asset",
          "type": "address"
        },
        {
          "internalType": "uint256",
          "name": "_id",
          "type": "uint256"
        },
        {
          "internalType": "address",
          "name": "_receiver",
          "type": "address"
        }
      ],
      "name": "claimAsset",
      "outputs": [],
      "stateMutability": "nonpayable",
      "type": "function"
    },
    {
      "inputs": [],
      "name": "cryptoPunks",
      "outputs": [
        {
          "internalType": "address",
          "name": "",
          "type": "address"
        }
      ],
      "stateMutability": "view",
      "type": "function"
    },
    {
      "inputs": [
        {
          "internalType": "address",
          "name": "_asset",
          "type": "address"
        },
        {
          "internalType": "uint256",
          "name": "_id",
          "type": "uint256"
        },
        {
          "internalType": "address",
          "name": "_delegatee",
          "type": "address"
        },
        {
          "internalType": "uint256",
          "name": "_duration",
          "type": "uint256"
        }
      ],
      "name": "delegate",
      "outputs": [],
      "stateMutability": "nonpayable",
      "type": "function"
    },
    {
      "inputs": [
        {
          "internalType": "address[]",
          "name": "_assets",
          "type": "address[]"
        },
        {
          "internalType": "uint256[]",
          "name": "_ids",
          "type": "uint256[]"
        },
        {
          "internalType": "address",
          "name": "_delegatee",
          "type": "address"
        },
        {
          "internalType": "uint256",
          "name": "_duration",
          "type": "uint256"
        }
      ],
      "name": "delegateSignature",
      "outputs": [],
      "stateMutability": "nonpayable",
      "type": "function"
    },
    {
      "inputs": [
        {
          "internalType": "address",
          "name": "",
          "type": "address"
        }
      ],
      "name": "delegationControllers",
      "outputs": [
        {
          "internalType": "bool",
          "name": "",
          "type": "bool"
        }
      ],
      "stateMutability": "view",
      "type": "function"
    },
    {
      "inputs": [
        {
          "internalType": "bytes32",
          "name": "",
          "type": "bytes32"
        }
      ],
      "name": "delegations",
      "outputs": [
        {
          "internalType": "address",
          "name": "controller",
          "type": "address"
        },
        {
          "internalType": "address",
          "name": "delegatee",
          "type": "address"
        },
        {
          "internalType": "uint256",
          "name": "from",
          "type": "uint256"
        },
        {
          "internalType": "uint256",
          "name": "to",
          "type": "uint256"
        }
      ],
      "stateMutability": "view",
      "type": "function"
    },
    {
      "inputs": [
        {
          "internalType": "address",
          "name": "_asset",
          "type": "address"
        },
        {
          "internalType": "uint256",
          "name": "_id",
          "type": "uint256"
        }
      ],
      "name": "endDelegate",
      "outputs": [],
      "stateMutability": "nonpayable",
      "type": "function"
    },
    {
      "inputs": [],
      "name": "endDelegateSignature",
      "outputs": [],
      "stateMutability": "nonpayable",
      "type": "function"
    },
    {
      "inputs": [
        {
          "internalType": "address",
          "name": "_asset",
          "type": "address"
        },
        {
          "internalType": "uint256",
          "name": "_id",
          "type": "uint256"
        },
        {
          "internalType": "address",
          "name": "_to",
          "type": "address"
        },
        {
          "internalType": "uint256",
          "name": "_value",
          "type": "uint256"
        },
        {
          "internalType": "bytes",
          "name": "_data",
          "type": "bytes"
        },
        {
          "internalType": "uint256",
          "name": "_safeTxGas",
          "type": "uint256"
        },
        {
          "internalType": "uint256",
          "name": "_baseGas",
          "type": "uint256"
        },
        {
          "internalType": "uint256",
          "name": "_gasPrice",
          "type": "uint256"
        },
        {
          "internalType": "address",
          "name": "_gasToken",
          "type": "address"
        },
        {
          "internalType": "address payable",
          "name": "_refundReceiver",
          "type": "address"
        }
      ],
      "name": "execTransaction",
      "outputs": [
        {
          "internalType": "bool",
          "name": "success",
          "type": "bool"
        }
      ],
      "stateMutability": "nonpayable",
      "type": "function"
    },
    {
      "inputs": [],
      "name": "guard",
      "outputs": [
        {
          "internalType": "contract DelegationGuard",
          "name": "",
          "type": "address"
        }
      ],
      "stateMutability": "view",
      "type": "function"
    },
    {
      "inputs": [
        {
          "internalType": "address",
          "name": "_guardBeacon",
          "type": "address"
        },
        {
          "internalType": "address",
          "name": "_safe",
          "type": "address"
        },
        {
          "internalType": "address",
          "name": "_owner",
          "type": "address"
        },
        {
          "internalType": "address",
          "name": "_delegationController",
          "type": "address"
        },
        {
          "internalType": "address",
          "name": "_lockController",
          "type": "address"
        }
      ],
      "name": "initialize",
      "outputs": [],
      "stateMutability": "nonpayable",
      "type": "function"
    },
    {
      "inputs": [
        {
          "internalType": "address",
          "name": "_asset",
          "type": "address"
        },
        {
          "internalType": "address",
          "name": "_contract",
          "type": "address"
        },
        {
          "internalType": "bytes4",
          "name": "_selector",
          "type": "bytes4"
        }
      ],
      "name": "isAllowedFunction",
      "outputs": [
        {
          "internalType": "bool",
          "name": "",
          "type": "bool"
        }
      ],
      "stateMutability": "view",
      "type": "function"
    },
    {
      "inputs": [
        {
          "internalType": "address",
          "name": "_asset",
          "type": "address"
        },
        {
          "internalType": "uint256",
          "name": "_id",
          "type": "uint256"
        }
      ],
      "name": "isAssetDelegated",
      "outputs": [
        {
          "internalType": "bool",
          "name": "",
          "type": "bool"
        }
      ],
      "stateMutability": "view",
      "type": "function"
    },
    {
      "inputs": [
        {
          "internalType": "address",
          "name": "_asset",
          "type": "address"
        },
        {
          "internalType": "uint256",
          "name": "_id",
          "type": "uint256"
        }
      ],
      "name": "isAssetLocked",
      "outputs": [
        {
          "internalType": "bool",
          "name": "",
          "type": "bool"
        }
      ],
      "stateMutability": "view",
      "type": "function"
    },
    {
      "inputs": [],
      "name": "isSignatureDelegated",
      "outputs": [
        {
          "internalType": "bool",
          "name": "",
          "type": "bool"
        }
      ],
      "stateMutability": "view",
      "type": "function"
    },
    {
      "inputs": [
        {
          "internalType": "bytes",
          "name": "_data",
          "type": "bytes"
        },
        {
          "internalType": "bytes",
          "name": "_signature",
          "type": "bytes"
        }
      ],
      "name": "isValidSignature",
      "outputs": [
        {
          "internalType": "bytes4",
          "name": "",
          "type": "bytes4"
        }
      ],
      "stateMutability": "view",
      "type": "function"
    },
    {
      "inputs": [
        {
          "internalType": "address",
          "name": "_asset",
          "type": "address"
        },
        {
          "internalType": "uint256",
          "name": "_id",
          "type": "uint256"
        },
        {
          "internalType": "uint256",
          "name": "_claimDate",
          "type": "uint256"
        }
      ],
      "name": "lockAsset",
      "outputs": [],
      "stateMutability": "nonpayable",
      "type": "function"
    },
    {
      "inputs": [
        {
          "internalType": "address",
          "name": "",
          "type": "address"
        }
      ],
      "name": "lockControllers",
      "outputs": [
        {
          "internalType": "bool",
          "name": "",
          "type": "bool"
        }
      ],
      "stateMutability": "view",
      "type": "function"
    },
    {
      "inputs": [
        {
          "internalType": "bytes32",
          "name": "",
          "type": "bytes32"
        }
      ],
      "name": "lockedAssets",
      "outputs": [
        {
          "internalType": "uint256",
          "name": "",
          "type": "uint256"
        }
      ],
      "stateMutability": "view",
      "type": "function"
    },
    {
      "inputs": [
        {
          "internalType": "bytes32",
          "name": "",
          "type": "bytes32"
        }
      ],
      "name": "lockedBy",
      "outputs": [
        {
          "internalType": "address",
          "name": "",
          "type": "address"
        }
      ],
      "stateMutability": "view",
      "type": "function"
    },
    {
      "inputs": [],
      "name": "owner",
      "outputs": [
        {
          "internalType": "address",
          "name": "",
          "type": "address"
        }
      ],
      "stateMutability": "view",
      "type": "function"
    },
    {
      "inputs": [],
      "name": "recipes",
      "outputs": [
        {
          "internalType": "contract DelegationRecipes",
          "name": "",
          "type": "address"
        }
      ],
      "stateMutability": "view",
      "type": "function"
    },
    {
      "inputs": [],
      "name": "safe",
      "outputs": [
        {
          "internalType": "address",
          "name": "",
          "type": "address"
        }
      ],
      "stateMutability": "view",
      "type": "function"
    },
    {
      "inputs": [
        {
          "internalType": "address",
          "name": "_delegationController",
          "type": "address"
        },
        {
          "internalType": "bool",
          "name": "_allowed",
          "type": "bool"
        }
      ],
      "name": "setDelegationController",
      "outputs": [],
      "stateMutability": "nonpayable",
      "type": "function"
    },
    {
      "inputs": [
        {
          "internalType": "address",
          "name": "_lockController",
          "type": "address"
        },
        {
          "internalType": "bool",
          "name": "_allowed",
          "type": "bool"
        }
      ],
      "name": "setLockController",
      "outputs": [],
      "stateMutability": "nonpayable",
      "type": "function"
    },
    {
      "inputs": [],
      "name": "signatureDelegation",
      "outputs": [
        {
          "internalType": "address",
          "name": "controller",
          "type": "address"
        },
        {
          "internalType": "address",
          "name": "delegatee",
          "type": "address"
        },
        {
          "internalType": "uint256",
          "name": "from",
          "type": "uint256"
        },
        {
          "internalType": "uint256",
          "name": "to",
          "type": "uint256"
        }
      ],
      "stateMutability": "view",
      "type": "function"
    },
    {
      "inputs": [
        {
          "internalType": "address",
          "name": "_asset",
          "type": "address"
        },
        {
          "internalType": "uint256",
          "name": "_id",
          "type": "uint256"
        }
      ],
      "name": "unlockAsset",
      "outputs": [],
      "stateMutability": "nonpayable",
      "type": "function"
    }
  ],
  "transactionHash": "0xae81a2dd6bb91c0d34dde52324854ee03c39561040e3e580c805fe8f1e4edd6b",
  "args": [
    "0x93fD9C0704723F366DA247B3f4f4f38a575015EF",
    "0x0563Bd7ff33C20943722024b106d50346C9675fd",
    "0x59A9c26777304F2bfEbCD1D779266d49A765383B"
  ],
  "numDeployments": 4,
  "solcInputHash": "dab2e1279e4220b56ef064ca69df6f31",
  "bytecode": "0x60e06040523480156200001157600080fd5b50604051620043783803806200437883398101604081905262000034916200013f565b6001600160a01b0380841660805282811660a052811660c0526200005762000060565b50505062000189565b600054610100900460ff1615620000cd5760405162461bcd60e51b815260206004820152602760248201527f496e697469616c697a61626c653a20636f6e747261637420697320696e697469604482015266616c697a696e6760c81b606482015260840160405180910390fd5b60005460ff908116101562000120576000805460ff191660ff9081179091556040519081527f7f26b83ff96e1f2b6a682f133852f6798a09c465da95921460cefb38474024989060200160405180910390a15b565b80516001600160a01b03811681146200013a57600080fd5b919050565b6000806000606084860312156200015557600080fd5b620001608462000122565b9250620001706020850162000122565b9150620001806040850162000122565b90509250925092565b60805160a05160c05161419c620001dc6000396000818161034201528181611be50152611cfb0152600081816103fd01526112f40152600081816105b801528181612112015261251e015261419c6000f3fe60806040523480156200001157600080fd5b50600436106200020d5760003560e01c80637ceab3b11162000125578063c40695c611620000af578063d0bc2b37116200007a578063d0bc2b371462000591578063d9205768146200059b578063eb7ee2a714620005b2578063ef90f69414620005da57600080fd5b8063c40695c61462000508578063c79dc1ec146200051f578063ca9b1b5b1462000542578063cf049cad146200054c57600080fd5b80639729520e11620000f05780639729520e146200048c5780639b8e529414620004b4578063b982ddb614620004da578063c163a07f14620004f157600080fd5b80637ceab3b114620004365780637e82addd146200044a5780638da5cb5b146200046157806390e16a44146200047557600080fd5b80633a48ba4811620001a75780635e7db13d11620001725780635e7db13d14620003c95780635e82620414620003e057806370e55f3014620003f75780637421237c146200041f57600080fd5b80633a48ba48146200033c5780633d12973a14620003645780634969cf7e146200038a5780635d3220f114620003b257600080fd5b806320c13b0b11620001e857806320c13b0b146200027957806324fafd5a14620002aa5780632b38c6cb14620002c15780633729b65a14620002ed57600080fd5b80631459457a1462000212578063182216d5146200022b578063186f03541462000242575b600080fd5b620002296200022336600462002cb5565b62000600565b005b620002296200023c36600462002d31565b620008a6565b6000546200025c906201000090046001600160a01b031681565b6040516001600160a01b0390911681526020015b60405180910390f35b620002906200028a36600462002e0b565b62000990565b6040516001600160e01b0319909116815260200162000270565b62000229620002bb36600462002e76565b62000a80565b6200025c620002d236600462002eae565b600f602052600090815260409020546001600160a01b031681565b600754600854600954600a5462000310936001600160a01b039081169316919084565b604080516001600160a01b03958616815294909316602085015291830152606082015260800162000270565b6200025c7f000000000000000000000000000000000000000000000000000000000000000081565b6200037b6200037536600462002d31565b62000c15565b60405190815260200162000270565b620003a16200039b36600462002ec8565b62000c5c565b604051901515815260200162000270565b62000229620003c336600462002fc1565b62000fc8565b62000229620003da36600462002d31565b62001132565b62000229620003f136600462002e76565b6200121e565b6200025c7f000000000000000000000000000000000000000000000000000000000000000081565b620003a16200043036600462003008565b620012ba565b6004546200025c906001600160a01b031681565b620003a16200045b36600462002d31565b6200136c565b6001546200025c906001600160a01b031681565b62000229620004863660046200305b565b6200138b565b6200037b7f4a204f620c8c5ccdca3fd54d003badd85ba500436a431f0cbda4f558c93c34c881565b620003a1620004c5366004620030a8565b60026020526000908152604090205460ff1681565b62000229620004eb366004620030d7565b620015ad565b62000229620005023660046200315d565b620015e9565b620003a16200051936600462002d31565b62001a1b565b6200037b6200053036600462002eae565b600e6020526000908152604090205481565b6200022962001a99565b620003106200055d36600462002eae565b60066020526000908152604090208054600182015460028301546003909301546001600160a01b0392831693919092169184565b620003a162001b77565b62000229620005ac366004620030d7565b62001b8a565b6200025c7f000000000000000000000000000000000000000000000000000000000000000081565b620003a1620005eb366004620030a8565b60036020526000908152604090205460ff1681565b600054610100900460ff1615808015620006215750600054600160ff909116105b806200063d5750303b1580156200063d575060005460ff166001145b620006a65760405162461bcd60e51b815260206004820152602e60248201527f496e697469616c697a61626c653a20636f6e747261637420697320616c72656160448201526d191e481a5b9a5d1a585b1a5e995960921b60648201526084015b60405180910390fd5b6000805460ff191660011790558015620006ca576000805461ff0019166101001790555b6001600160a01b038616620006f25760405163038e427360e41b815260040160405180910390fd5b6001600160a01b0385166200071a57604051634658d09560e01b815260040160405180910390fd5b6001600160a01b0384166200074257604051631ef5d9bf60e11b815260040160405180910390fd5b6000805462010000600160b01b031916620100006001600160a01b038881169190910291909117909155600180546001600160a01b03191686831617905583161562000795576200079583600162001bbd565b6001600160a01b03821615620007b257620007b282600162001cd3565b604080513060248083019190915282518083039091018152604490910182526020810180516001600160e01b031663189acdbd60e31b17905290516000918891620007fd9062002c7f565b6200080a92919062003246565b604051809103906000f08015801562000827573d6000803e3d6000fd5b50600480546001600160a01b0319166001600160a01b0383169081179091559091506200085690879062001de3565b5080156200089e576000805461ff0019169055604051600181527f7f26b83ff96e1f2b6a682f133852f6798a09c465da95921460cefb38474024989060200160405180910390a15b505050505050565b600060066000620008b8858562000c15565b81526020019081526020016000209050620008d38162002074565b6000600382015560405133815282906001600160a01b038516907f70c0c60e9bba9432c6f02e76e177115f9ac2a650733c7435f25a804cb68727929060200160405180910390a360048054604051638216670f60e01b81526001600160a01b03868116938201939093526024810185905260006044820152911690638216670f90606401600060405180830381600087803b1580156200097257600080fd5b505af115801562000987573d6000803e3d6000fd5b50505050505050565b600454600090600160a01b900460ff1662000a3157620009b16007620020cb565b620009cf5760405163d91705a560e01b815260040160405180910390fd5b600083806020019051810190620009e791906200326c565b90506000620009f78285620020e8565b6008549091506001600160a01b0380831691161462000a2957604051633329d33b60e21b815260040160405180910390fd5b505062000a70565b60008280602001905181019062000a4991906200326c565b9050600554811462000a6e576040516301494c6b60e31b815260040160405180910390fd5b505b506320c13b0b60e01b5b92915050565b3360009081526003602052604090205460ff1662000ab15760405163aa133d3d60e01b815260040160405180910390fd5b62000abd838362002110565b600062000acb848462000c15565b6000818152600e60205260409020549091501562000afc57604051630c0f922b60e11b815260040160405180910390fd5b4282101562000b1e5760405163bb2f546960e01b815260040160405180910390fd5b62000b2a8183620023af565b6000818152600e60209081526040808320859055600f9091529081902080546001600160a01b031916331790556004805491516314657eb960e11b81526001600160a01b0387811692820192909252602481018690529116906328cafd7290604401600060405180830381600087803b15801562000ba757600080fd5b505af115801562000bbc573d6000803e3d6000fd5b50505050336001600160a01b031683856001600160a01b03167f6002870c654429b213879aa96f86d5efaaa317cc0823c6b3018a5a83d888b43f8560405162000c0791815260200190565b60405180910390a450505050565b6040516bffffffffffffffffffffffff19606084901b1660208201526034810182905260009060540160405160208183030381529060405280519060200120905092915050565b6000806006600062000c6f8f8f62000c15565b8152602001908152602001600020905062000c8a81620020cb565b62000ca85760405163b102144360e01b815260040160405180910390fd5b60018101546001600160a01b0316331462000cd6576040516360b845ed60e01b815260040160405180910390fd5b62000d1d8d8c620004308c8c8080601f0160208091040260200160405190810160405280939291908181526020018383808284376000920191909152506200245a92505050565b62000d3b576040516318584ce160e11b815260040160405180910390fd5b6001600460146101000a81548160ff021916908315150217905550600060029054906101000a90046001600160a01b03166001600160a01b031663d8d11f788c8c8c8c60008d8d8d8d8d600060029054906101000a90046001600160a01b03166001600160a01b031663affed0e06040518163ffffffff1660e01b8152600401602060405180830381865afa15801562000dd9573d6000803e3d6000fd5b505050506040513d601f19601f8201168201806040525081019062000dff91906200326c565b6040518c63ffffffff1660e01b815260040162000e279b9a99989796959493929190620032e8565b602060405180830381865afa15801562000e45573d6000803e3d6000fd5b505050506040513d601f19601f8201168201806040525081019062000e6b91906200326c565b600555604080513060208201526000910160408051601f1981840301815282825260416020840152910160408051601f19818403018152828252602083810152916000910160408051601f198184030181529082905260055462000ed59594939260200162003364565b6040516020818303038152906040529050600060029054906101000a90046001600160a01b03166001600160a01b0316636a7612028d8d8d8d60008e8e8e8e8e8c6040518c63ffffffff1660e01b815260040162000f3e9b9a99989796959493929190620033c9565b6020604051808303816000875af115801562000f5e573d6000803e3d6000fd5b505050506040513d601f19601f8201168201806040525081019062000f84919062003455565b6004805460ff60a01b19169055600060055592508262000fb75760405163f4e0c8a960e01b815260040160405180910390fd5b50509b9a5050505050505050505050565b600062000fd6848462000c15565b905062000fe38162002461565b6000818152600e6020526040902054421080156200100757506200100781620024c8565b15620010265760405163e2a8456d60e01b815260040160405180910390fd5b6000818152600e60209081526040808320839055600f9091529081902080546001600160a01b0319169055600480549151635e7db13d60e01b81526001600160a01b038781169282019290925260248101869052911690635e7db13d90604401600060405180830381600087803b158015620010a157600080fd5b505af1158015620010b6573d6000803e3d6000fd5b505050506000620010c985858562002519565b905080620010ea576040516390a8045960e01b815260040160405180910390fd5b826001600160a01b031684866001600160a01b03167f480faf0ab65e046e95a8e87f67a81e0ba7d1b110e6b367453d4eaf87c74ff7b160405160405180910390a45050505050565b600062001140838362000c15565b90506200114d8162002461565b6000818152600e60209081526040808320839055600f9091529081902080546001600160a01b0319169055600480549151635e7db13d60e01b81526001600160a01b038681169282019290925260248101859052911690635e7db13d90604401600060405180830381600087803b158015620011c857600080fd5b505af1158015620011dd573d6000803e3d6000fd5b50506040513392508491506001600160a01b038616907f8d1334bb3112f2d7330941aa7fcee35f0abccf3471f76aa757d32fd1de759c4790600090a4505050565b60006200122c848462000c15565b9050620012398162002461565b428210156200125b57604051638ebb2ef160e01b815260040160405180910390fd5b620012678183620023af565b6000818152600e60205260409081902083905551339084906001600160a01b038716907f4b05d3cca14a1104b9594b65a46ee2a9e80ad4d9e14e2e6594421d269344a8bc9062000c079087815260200190565b604051631d0848df60e21b81526001600160a01b03848116600483015283811660248301526001600160e01b0319831660448301526000917f000000000000000000000000000000000000000000000000000000000000000090911690637421237c90606401602060405180830381865afa1580156200133e573d6000803e3d6000fd5b505050506040513d601f19601f8201168201806040525081019062001364919062003455565b949350505050565b6000620013846200137e848462000c15565b620024c8565b9392505050565b3360009081526002602052604090205460ff16620013bc576040516317d90e6760e31b815260040160405180910390fd5b620013c8848462002110565b6000620013d6858562000c15565b6000818152600660205260409020909150620013f281620020cb565b15620014115760405163019c95b560e61b815260040160405180910390fd5b6001600160a01b038416620014395760405163310c057d60e01b815260040160405180910390fd5b826000036200145b5760405163a14fc93f60e01b815260040160405180910390fd5b8054336001600160a01b03199182161782556001820180549091166001600160a01b03861617905542600062001492858362003475565b60028401839055600384018190556000858152600e60205260409020549091508015801590620014c157508181105b15620014e057604051632c7e313160e01b815260040160405180910390fd5b6040805184815260208101849052338183015290516001600160a01b03898116928b92918d16917f2334b1a33b7bb902bab59d3f48c271e1446690cef5fdfe59ff2d2ba9ac5352ed9181900360600190a460048054604051638216670f60e01b81526001600160a01b038c811693820193909352602481018b905260448101859052911690638216670f90606401600060405180830381600087803b1580156200158957600080fd5b505af11580156200159e573d6000803e3d6000fd5b50505050505050505050505050565b6001546001600160a01b03163314620015d9576040516357a7f3f960e01b815260040160405180910390fd5b620015e5828262001cd3565b5050565b3360009081526002602052604090205460ff166200161a576040516317d90e6760e31b815260040160405180910390fd5b8483146200163b5760405163709f968960e11b815260040160405180910390fd5b620016476007620020cb565b156200166657604051630bc2778f60e41b815260040160405180910390fd5b6001600160a01b0382166200168e57604051632bdd9d1b60e11b815260040160405180910390fd5b80600003620016b0576040516314b30e0f60e21b815260040160405180910390fd5b6000620016be824262003475565b90506001600d6000828254620016d5919062003475565b90915550600090505b8681101562001905576200173988888381811062001700576200170062003497565b9050602002016020810190620017179190620030a8565b8787848181106200172c576200172c62003497565b9050602002013562002110565b60006200178d89898481811062001754576200175462003497565b90506020020160208101906200176b9190620030a8565b88888581811062001780576200178062003497565b9050602002013562000c15565b6000818152600e60205260409020549091508015801590620017ae57508381105b156200182957898984818110620017c957620017c962003497565b9050602002016020810190620017e09190620030a8565b888885818110620017f557620017f562003497565b604051636836fe9960e01b81526001600160a01b03909416600485015260200291909101356024830152506044016200069d565b600d546000908152600c602052604090208a8a858181106200184f576200184f62003497565b9050602002016020810190620018669190620030a8565b8154600180820184556000938452602080852090920180546001600160a01b0319166001600160a01b039490941693909317909255600d548352600c9052604090912001888885818110620018bf57620018bf62003497565b835460018101855560009485526020808620928102949094013591015550600d548252600b905260409020620018f69083620027af565b508260010192505050620016de565b5060408051608081018252338082526001600160a01b038616602083018190524283850181905260608401869052600780546001600160a01b0319908116851790915560088054909116831790556009819055600a8690559351929390927f80d24d8b34c5d08c588f10f7d50d06db95268109a603d8286fba095825b40f97926200199c929187918e918e918e918e91906200352d565b60405180910390a260048054604051630b9ab31360e31b81526001600160a01b0390911691635cd5989891620019dd918c918c918c918c918a910162003581565b600060405180830381600087803b158015620019f857600080fd5b505af115801562001a0d573d6000803e3d6000fd5b505050505050505050505050565b6004805460405163267328db60e21b81526001600160a01b038581169382019390935260248101849052600092909116906399cca36c90604401602060405180830381865afa15801562001a73573d6000803e3d6000fd5b505050506040513d601f19601f8201168201806040525081019062001384919062003455565b62001aa5600762002074565b6000600a819055600d548152600c60205260409081902090517fb2608858edc659b7731c809dc5f8146e58ceb06f97488d4530d9fff89245d0af9162001af2916001820190339062003636565b60405180910390a160048054600d546000908152600c60205260408082209051630b9ab31360e31b81526001600160a01b0390931693635cd598989362001b4193600184019290910162003678565b600060405180830381600087803b15801562001b5c57600080fd5b505af115801562001b71573d6000803e3d6000fd5b50505050565b600062001b856007620020cb565b905090565b6001546001600160a01b0316331462001bb6576040516357a7f3f960e01b815260040160405180910390fd5b620015e582825b80801562001c55575060405163618cfc6760e11b81526001600160a01b0383811660048301527f0000000000000000000000000000000000000000000000000000000000000000169063c319f8ce90602401602060405180830381865afa15801562001c2d573d6000803e3d6000fd5b505050506040513d601f19601f8201168201806040525081019062001c53919062003455565b155b1562001c7357604051624af38160e71b815260040160405180910390fd5b6001600160a01b038216600081815260026020908152604091829020805460ff191685151590811790915591519182527fe327fbdc26db4509d457f9c24bfff7cbcc828d449cb05cc3ba7a6a5657bd28f291015b60405180910390a25050565b80801562001d6b57506040516395f8551360e01b81526001600160a01b0383811660048301527f000000000000000000000000000000000000000000000000000000000000000016906395f8551390602401602060405180830381865afa15801562001d43573d6000803e3d6000fd5b505050506040513d601f19601f8201168201806040525081019062001d69919062003455565b155b1562001d8a5760405163677c231160e01b815260040160405180910390fd5b6001600160a01b038216600081815260036020908152604091829020805460ff191685151590811790915591519182527f2d51762d8d811c4be28978bd7e636506cf3d83d9aa8e0b3329a87150810d2a1e910162001cc7565b6004805460ff60a01b1916600160a01b1790556040516001600160a01b038216602482015260009063e19a9dd960e01b90604401604051602081830303815290604052906001600160e01b0319166020820180516001600160e01b0383818316178352505050509050826001600160a01b031663d8d11f78600060029054906101000a90046001600160a01b03166000846000806000806000808d6001600160a01b031663affed0e06040518163ffffffff1660e01b8152600401602060405180830381865afa15801562001ebc573d6000803e3d6000fd5b505050506040513d601f19601f8201168201806040525081019062001ee291906200326c565b6040518b63ffffffff1660e01b815260040162001f099a99989796959493929190620036b2565b602060405180830381865afa15801562001f27573d6000803e3d6000fd5b505050506040513d601f19601f8201168201806040525081019062001f4d91906200326c565b600555604080513060208201526000910160408051601f1981840301815282825260416020840152910160408051601f19818403018152828252602083810152916000910160408051601f198184030181529082905260055462001fb79594939260200162003364565b60408051601f19818403018152908290526000805463353b090160e11b84529193506001600160a01b0380881693636a76120293620020159362010000909104909216919087908290819081908190819081908d906004016200372c565b6020604051808303816000875af115801562002035573d6000803e3d6000fd5b505050506040513d601f19601f820116820180604052508101906200205b919062003455565b50506004805460ff60a01b191690555050600060055550565b6200207f81620020cb565b6200209d57604051630182f65b60e21b815260040160405180910390fd5b80546001600160a01b03163314620020c8576040516316c0689560e11b815260040160405180910390fd5b50565b60004282600201541115801562000a7a5750506003015442111590565b6000806000620020f98585620027bd565b91509150620021088162002806565b509392505050565b7f00000000000000000000000000000000000000000000000000000000000000006001600160a01b0316826001600160a01b0316036200227757600054604051630b02f02d60e31b8152600481018390526001600160a01b0362010000909204821691841690635817816890602401602060405180830381865afa1580156200219d573d6000803e3d6000fd5b505050506040513d601f19601f82011682018060405250810190620021c39190620037b6565b6001600160a01b031614620021eb57604051630afd99c760e21b815260040160405180910390fd5b60405163088f11f360e01b8152600481018290526001600160a01b0383169063088f11f39060240160a060405180830381865afa15801562002231573d6000803e3d6000fd5b505050506040513d601f19601f82011682018060405250810190620022579190620037d6565b5115620015e5576040516304a92c4360e41b815260040160405180910390fd5b6000546040516331a9108f60e11b8152600481018390526001600160a01b0362010000909204821691841690636352211e90602401602060405180830381865afa158015620022ca573d6000803e3d6000fd5b505050506040513d601f19601f82011682018060405250810190620022f09190620037b6565b6001600160a01b0316146200231857604051630afd99c760e21b815260040160405180910390fd5b60405163020604bf60e21b8152600481018290526000906001600160a01b0384169063081812fc90602401602060405180830381865afa15801562002361573d6000803e3d6000fd5b505050506040513d601f19601f82011682018060405250810190620023879190620037b6565b6001600160a01b031614620015e5576040516304a92c4360e41b815260040160405180910390fd5b6000828152600660205260409020620023c881620020cb565b8015620023d85750818160030154115b15620023f75760405163042a7e0d60e51b815260040160405180910390fd5b620024036007620020cb565b8015620024285750600d546000908152600b6020526040902062002428908462002963565b8015620024365750600a5482105b156200245557604051633b1f804160e01b815260040160405180910390fd5b505050565b6020015190565b6000818152600e602052604081205490036200249057604051636899335d60e01b815260040160405180910390fd5b6000818152600f60205260409020546001600160a01b03163314620020c85760405163213a805360e01b815260040160405180910390fd5b6000818152600660205260408120620024e181620020cb565b80620013845750620024f46007620020cb565b8015620013845750600d546000908152600b6020526040902062001384908462002963565b6000807f00000000000000000000000000000000000000000000000000000000000000006001600160a01b0316856001600160a01b0316146200256957620025638585856200297c565b62002576565b6200257685858562002a94565b60048054600160a01b60ff60a01b19909116178155600080546040805163057ff68760e51b81529051949550620100009091046001600160a01b03169363d8d11f78938a939287928492839283928392839283928d9263affed0e0928082019260209290918290030181865afa158015620025f5573d6000803e3d6000fd5b505050506040513d601f19601f820116820180604052508101906200261b91906200326c565b6040518b63ffffffff1660e01b8152600401620026429a99989796959493929190620036b2565b602060405180830381865afa15801562002660573d6000803e3d6000fd5b505050506040513d601f19601f820116820180604052508101906200268691906200326c565b600555604080513060208201526000910160408051601f1981840301815282825260416020840152910160408051601f19818403018152828252602083810152916000910160408051601f1981840301815290829052600554620026f09594939260200162003364565b60408051808303601f19018152908290526000805463353b090160e11b845291935091620100009091046001600160a01b031690636a761202906200274c908a90859088908290819081908190819081908e906004016200372c565b6020604051808303816000875af11580156200276c573d6000803e3d6000fd5b505050506040513d601f19601f8201168201806040525081019062002792919062003455565b6004805460ff60a01b191690556000600555979650505050505050565b600062001384838362002b64565b6000808251604103620027f75760208301516040840151606085015160001a620027ea8782858562002bb6565b94509450505050620027ff565b506000905060025b9250929050565b60008160048111156200281d576200281d620032af565b03620028265750565b60018160048111156200283d576200283d620032af565b036200288c5760405162461bcd60e51b815260206004820152601860248201527f45434453413a20696e76616c6964207369676e6174757265000000000000000060448201526064016200069d565b6002816004811115620028a357620028a3620032af565b03620028f25760405162461bcd60e51b815260206004820152601f60248201527f45434453413a20696e76616c6964207369676e6174757265206c656e6774680060448201526064016200069d565b6003816004811115620029095762002909620032af565b03620020c85760405162461bcd60e51b815260206004820152602260248201527f45434453413a20696e76616c6964207369676e6174757265202773272076616c604482015261756560f01b60648201526084016200069d565b6000818152600183016020526040812054151562001384565b6000546040516331a9108f60e11b8152600481018490526060916201000090046001600160a01b039081169190861690636352211e90602401602060405180830381865afa158015620029d3573d6000803e3d6000fd5b505050506040513d601f19601f82011682018060405250810190620029f99190620037b6565b6001600160a01b03161462002a2157604051639e3cc7d760e01b815260040160405180910390fd5b600054604051620100009091046001600160a01b03908116602483015283166044820152606481018490526323b872dd60e01b906084015b60408051601f198184030181529190526020810180516001600160e01b03166001600160e01b03199093169290921790915290509392505050565b600054604051630b02f02d60e31b8152600481018490526060916201000090046001600160a01b039081169190861690635817816890602401602060405180830381865afa15801562002aeb573d6000803e3d6000fd5b505050506040513d601f19601f8201168201806040525081019062002b119190620037b6565b6001600160a01b03161462002b3957604051639e3cc7d760e01b815260040160405180910390fd5b6040516001600160a01b0383166024820152604481018490526322dca8bb60e21b9060640162002a59565b600081815260018301602052604081205462002bad5750815460018181018455600084815260208082209093018490558454848252828601909352604090209190915562000a7a565b50600062000a7a565b6000807f7fffffffffffffffffffffffffffffff5d576e7357a4501ddfe92f46681b20a083111562002bef575060009050600362002c76565b6040805160008082526020820180845289905260ff881692820192909252606081018690526080810185905260019060a0016020604051602081039080840390855afa15801562002c44573d6000803e3d6000fd5b5050604051601f1901519150506001600160a01b03811662002c6f5760006001925092505062002c76565b9150600090505b94509492505050565b610900806200386783390190565b6001600160a01b0381168114620020c857600080fd5b803562002cb08162002c8d565b919050565b600080600080600060a0868803121562002cce57600080fd5b853562002cdb8162002c8d565b9450602086013562002ced8162002c8d565b9350604086013562002cff8162002c8d565b9250606086013562002d118162002c8d565b9150608086013562002d238162002c8d565b809150509295509295909350565b6000806040838503121562002d4557600080fd5b823562002d528162002c8d565b946020939093013593505050565b634e487b7160e01b600052604160045260246000fd5b600082601f83011262002d8857600080fd5b813567ffffffffffffffff8082111562002da65762002da662002d60565b604051601f8301601f19908116603f0116810190828211818310171562002dd15762002dd162002d60565b8160405283815286602085880101111562002deb57600080fd5b836020870160208301376000602085830101528094505050505092915050565b6000806040838503121562002e1f57600080fd5b823567ffffffffffffffff8082111562002e3857600080fd5b62002e468683870162002d76565b9350602085013591508082111562002e5d57600080fd5b5062002e6c8582860162002d76565b9150509250929050565b60008060006060848603121562002e8c57600080fd5b833562002e998162002c8d565b95602085013595506040909401359392505050565b60006020828403121562002ec157600080fd5b5035919050565b60008060008060008060008060008060006101408c8e03121562002eeb57600080fd5b8b3562002ef88162002c8d565b9a5060208c0135995060408c013562002f118162002c8d565b985060608c0135975060808c013567ffffffffffffffff8082111562002f3657600080fd5b818e0191508e601f83011262002f4b57600080fd5b81358181111562002f5b57600080fd5b8f602082850101111562002f6e57600080fd5b60208301995080985050505060a08c0135945060c08c0135935060e08c0135925062002f9e6101008d0162002ca3565b915062002faf6101208d0162002ca3565b90509295989b509295989b9093969950565b60008060006060848603121562002fd757600080fd5b833562002fe48162002c8d565b925060208401359150604084013562002ffd8162002c8d565b809150509250925092565b6000806000606084860312156200301e57600080fd5b83356200302b8162002c8d565b925060208401356200303d8162002c8d565b915060408401356001600160e01b03198116811462002ffd57600080fd5b600080600080608085870312156200307257600080fd5b84356200307f8162002c8d565b9350602085013592506040850135620030988162002c8d565b9396929550929360600135925050565b600060208284031215620030bb57600080fd5b8135620013848162002c8d565b8015158114620020c857600080fd5b60008060408385031215620030eb57600080fd5b8235620030f88162002c8d565b915060208301356200310a81620030c8565b809150509250929050565b60008083601f8401126200312857600080fd5b50813567ffffffffffffffff8111156200314157600080fd5b6020830191508360208260051b8501011115620027ff57600080fd5b600080600080600080608087890312156200317757600080fd5b863567ffffffffffffffff808211156200319057600080fd5b6200319e8a838b0162003115565b90985096506020890135915080821115620031b857600080fd5b50620031c789828a0162003115565b9095509350506040870135620031dd8162002c8d565b80925050606087013590509295509295509295565b60005b838110156200320f578181015183820152602001620031f5565b50506000910152565b6000815180845262003232816020860160208601620031f2565b601f01601f19169290920160200192915050565b6001600160a01b0383168152604060208201819052600090620013649083018462003218565b6000602082840312156200327f57600080fd5b5051919050565b81835281816020850137506000828201602090810191909152601f909101601f19169091010190565b634e487b7160e01b600052602160045260246000fd5b60028110620032e457634e487b7160e01b600052602160045260246000fd5b9052565b6001600160a01b038c81168252602082018c905261014060408301819052600091620033188483018d8f62003286565b925062003329606085018c620032c5565b60808401999099525060a082019690965260c081019490945291851660e0840152909316610100820152610120019190915295945050505050565b6000865162003378818460208b01620031f2565b8651908301906200338e818360208b01620031f2565b6001600160f81b0319871691019081528451620033b3816001840160208901620031f2565b0160018101939093525050602101949350505050565b6001600160a01b038c81168252602082018c905261014060408301819052600091620033f98483018d8f62003286565b91506200340a606085018c620032c5565b8960808501528860a08501528760c085015280871660e08501528086166101008501525082810361012084015262003443818562003218565b9e9d5050505050505050505050505050565b6000602082840312156200346857600080fd5b81516200138481620030c8565b8082018082111562000a7a57634e487b7160e01b600052601160045260246000fd5b634e487b7160e01b600052603260045260246000fd5b8183526000602080850194508260005b85811015620034ef578135620034d38162002c8d565b6001600160a01b031687529582019590820190600101620034bd565b509495945050505050565b81835260006001600160fb1b038311156200351457600080fd5b8260051b80836020870137939093016020019392505050565b87815286602082015260a0604082015260006200354f60a083018789620034ad565b828103606084015262003564818688620034fa565b91505060018060a01b038316608083015298975050505050505050565b60608152600062003597606083018789620034ad565b8281036020840152620035ac818688620034fa565b9150508260408301529695505050505050565b6000815480845260208085019450836000528060002060005b83811015620034ef5781546001600160a01b031687529582019560019182019101620035d8565b6000815480845260208085019450836000528060002060005b83811015620034ef5781548752958201956001918201910162003618565b6060815260006200364b6060830186620035bf565b82810360208401526200365f8186620035ff565b91505060018060a01b0383166040830152949350505050565b6060815260006200368d6060830186620035bf565b8281036020840152620036a18186620035ff565b915050826040830152949350505050565b6001600160a01b038b81168252602082018b905261014060408301819052600091620036e18483018d62003218565b9250620036f2606085018c620032c5565b60808401999099525060a082019690965260c081019490945291851660e08401529093166101008201526101200191909152949350505050565b6001600160a01b038b81168252602082018b9052610140604083018190526000916200375b8483018d62003218565b91506200376c606085018c620032c5565b8960808501528860a08501528760c085015280871660e085015280861661010085015250828103610120840152620037a5818562003218565b9d9c50505050505050505050505050565b600060208284031215620037c957600080fd5b8151620013848162002c8d565b600060a08284031215620037e957600080fd5b60405160a0810181811067ffffffffffffffff821117156200380f576200380f62002d60565b60405282516200381f81620030c8565b81526020838101519082015260408301516200383b8162002c8d565b60408201526060838101519082015260808301516200385a8162002c8d565b6080820152939250505056fe60806040526040516109003803806109008339810160408190526100229161045b565b61002e82826000610035565b5050610585565b61003e83610100565b6040516001600160a01b038416907f1cf3b03a6cf19fa2baba4df148e9dcabedea7f8a5c07840e207e5c089be95d3e90600090a260008251118061007f5750805b156100fb576100f9836001600160a01b0316635c60da1b6040518163ffffffff1660e01b8152600401602060405180830381865afa1580156100c5573d6000803e3d6000fd5b505050506040513d601f19601f820116820180604052508101906100e9919061051b565b836102a360201b6100291760201c565b505b505050565b610113816102cf60201b6100551760201c565b6101725760405162461bcd60e51b815260206004820152602560248201527f455243313936373a206e657720626561636f6e206973206e6f74206120636f6e6044820152641d1c9858dd60da1b60648201526084015b60405180910390fd5b6101e6816001600160a01b0316635c60da1b6040518163ffffffff1660e01b8152600401602060405180830381865afa1580156101b3573d6000803e3d6000fd5b505050506040513d601f19601f820116820180604052508101906101d7919061051b565b6102cf60201b6100551760201c565b61024b5760405162461bcd60e51b815260206004820152603060248201527f455243313936373a20626561636f6e20696d706c656d656e746174696f6e206960448201526f1cc81b9bdd08184818dbdb9d1c9858dd60821b6064820152608401610169565b806102827fa3f0ad74e5423aebfd80d3ef4346578335a9a72aeaee59ff6cb3582b35133d5060001b6102de60201b6100641760201c565b80546001600160a01b0319166001600160a01b039290921691909117905550565b60606102c883836040518060600160405280602781526020016108d9602791396102e1565b9392505050565b6001600160a01b03163b151590565b90565b6060600080856001600160a01b0316856040516102fe9190610536565b600060405180830381855af49150503d8060008114610339576040519150601f19603f3d011682016040523d82523d6000602084013e61033e565b606091505b5090925090506103508683838761035a565b9695505050505050565b606083156103c95782516000036103c2576001600160a01b0385163b6103c25760405162461bcd60e51b815260206004820152601d60248201527f416464726573733a2063616c6c20746f206e6f6e2d636f6e74726163740000006044820152606401610169565b50816103d3565b6103d383836103db565b949350505050565b8151156103eb5781518083602001fd5b8060405162461bcd60e51b81526004016101699190610552565b80516001600160a01b038116811461041c57600080fd5b919050565b634e487b7160e01b600052604160045260246000fd5b60005b8381101561045257818101518382015260200161043a565b50506000910152565b6000806040838503121561046e57600080fd5b61047783610405565b60208401519092506001600160401b038082111561049457600080fd5b818501915085601f8301126104a857600080fd5b8151818111156104ba576104ba610421565b604051601f8201601f19908116603f011681019083821181831017156104e2576104e2610421565b816040528281528860208487010111156104fb57600080fd5b61050c836020830160208801610437565b80955050505050509250929050565b60006020828403121561052d57600080fd5b6102c882610405565b60008251610548818460208701610437565b9190910192915050565b6020815260008251806020840152610571816040850160208701610437565b601f01601f19169190910160400192915050565b610345806105946000396000f3fe60806040523661001357610011610017565b005b6100115b610027610022610067565b610100565b565b606061004e83836040518060600160405280602781526020016102e960279139610124565b9392505050565b6001600160a01b03163b151590565b90565b600061009a7fa3f0ad74e5423aebfd80d3ef4346578335a9a72aeaee59ff6cb3582b35133d50546001600160a01b031690565b6001600160a01b0316635c60da1b6040518163ffffffff1660e01b8152600401602060405180830381865afa1580156100d7573d6000803e3d6000fd5b505050506040513d601f19601f820116820180604052508101906100fb919061024c565b905090565b3660008037600080366000845af43d6000803e80801561011f573d6000f35b3d6000fd5b6060600080856001600160a01b0316856040516101419190610299565b600060405180830381855af49150503d806000811461017c576040519150601f19603f3d011682016040523d82523d6000602084013e610181565b606091505b50915091506101928683838761019c565b9695505050505050565b60608315610210578251600003610209576001600160a01b0385163b6102095760405162461bcd60e51b815260206004820152601d60248201527f416464726573733a2063616c6c20746f206e6f6e2d636f6e747261637400000060448201526064015b60405180910390fd5b508161021a565b61021a8383610222565b949350505050565b8151156102325781518083602001fd5b8060405162461bcd60e51b815260040161020091906102b5565b60006020828403121561025e57600080fd5b81516001600160a01b038116811461004e57600080fd5b60005b83811015610290578181015183820152602001610278565b50506000910152565b600082516102ab818460208701610275565b9190910192915050565b60208152600082518060208401526102d4816040850160208701610275565b601f01601f1916919091016040019291505056fe416464726573733a206c6f772d6c6576656c2064656c65676174652063616c6c206661696c6564a264697066735822122022a6bf5ebbb7518c40e703958b5c8e4d70ca6715c1e1ccf9e9591bfc86e066d164736f6c63430008110033416464726573733a206c6f772d6c6576656c2064656c65676174652063616c6c206661696c6564a2646970667358221220d39723cb816dd0a4bac605b63b1df442b402feef1f94320a4d3bb9106b88f41664736f6c63430008110033",
  "devdoc": {
    "author": "BootNode",
    "details": "This contract contains the logic that enables asset/signature delegates to interact with a Gnosis Safe wallet. In the case of assets delegates, it will allow them to execute functions though the Safe, only those registered as allowed on the DelegationRecipes contract. In the case of signatures it validates that a signature was made by the current delegatee. It is also used by the delegation controller to set delegations and the lock controller to lock, unlock and claim assets. It should be use a proxy's implementation.",
    "kind": "dev",
    "methods": {
      "assetId(address,uint256)": {
        "params": {
          "_asset": "- The asset addresses.",
          "_id": "- The asset id."
        }
      },
      "changeClaimDate(address,uint256,uint256)": {
        "params": {
          "_asset": "- The locked asset addresses.",
          "_claimDate": "- The date from which the asset could be claimed if it is also delegated.",
          "_id": "- The locked asset id."
        }
      },
      "claimAsset(address,uint256,address)": {
        "params": {
          "_asset": "- The locked asset addresses.",
          "_id": "- The locked asset id.",
          "_receiver": "- The receiving address."
        }
      },
      "constructor": {
        "details": "Disables the initializer in order to prevent implementation initialization."
      },
      "delegate(address,uint256,address,uint256)": {
        "params": {
          "_asset": "- The asset address.",
          "_delegatee": "- The delegatee address.",
          "_duration": "- The duration of the delegation expressed in seconds.",
          "_id": "- The asset id."
        }
      },
      "delegateSignature(address[],uint256[],address,uint256)": {
        "params": {
          "_assets": "- The asset addresses.",
          "_delegatee": "- The delegatee address.",
          "_duration": "- The duration of the delegation expressed in seconds.",
          "_ids": "- The asset ids."
        }
      },
      "endDelegate(address,uint256)": {
        "params": {
          "_asset": "- The asset address.",
          "_id": "- The asset id."
        }
      },
      "execTransaction(address,uint256,address,uint256,bytes,uint256,uint256,uint256,address,address)": {
        "params": {
          "_asset": "- The delegated asset addresses.",
          "_baseGas": "Gas costs that are independent of the transaction execution(e.g. base transaction fee, signature check, payment of the refund)",
          "_data": "- Data payload of Safe transaction.",
          "_gasPrice": "- Gas price that should be used for the payment calculation.",
          "_gasToken": "- Token address (or 0 if ETH) that is used for the payment.",
          "_id": "- The delegated asset ids.",
          "_refundReceiver": "- Address of receiver of gas payment (or 0 if tx.origin).",
          "_safeTxGas": "- Gas that should be used for the Safe transaction.",
          "_to": "- Destination address of Safe transaction.",
          "_value": "- Ether value of Safe transaction."
        }
      },
      "initialize(address,address,address,address,address)": {
        "params": {
          "_delegationController": "- The address that acts as the delegation controller.",
          "_guardBeacon": "- The address of the beacon where the proxy gets the implementation address.",
          "_lockController": "- The address that acts as the lock controller.",
          "_owner": "- The owner of the DelegationWallet.",
          "_safe": "- The DelegationWallet address, the GnosisSafe."
        }
      },
      "isAllowedFunction(address,address,bytes4)": {
        "params": {
          "_asset": "- The delegated asset addresses.",
          "_contract": "- The addresses of the destination contract.",
          "_selector": "- The selector of the destination function."
        }
      },
      "isAssetDelegated(address,uint256)": {
        "params": {
          "_asset": "- The asset addresses.",
          "_id": "- The asset id."
        }
      },
      "isAssetLocked(address,uint256)": {
        "params": {
          "_asset": "- The asset addresses.",
          "_id": "- The asset id."
        }
      },
      "isValidSignature(bytes,bytes)": {
        "params": {
          "_data": "Hash of the data signed on the behalf of address(msg.sender) which must be encoded as bytes, necessary to make it compatible how the Safe calls the function.",
          "_signature": "Signature byte array associated with _dataHash"
        }
      },
      "lockAsset(address,uint256,uint256)": {
        "params": {
          "_asset": "- The locked asset addresses.",
          "_claimDate": "- The date from which the asset could be claimed if it is also delegated.",
          "_id": "- The locked asset id."
        }
      },
      "setDelegationController(address,bool)": {
        "params": {
          "_allowed": "- Allowance status.",
          "_delegationController": "- The new delegation controller address."
        }
      },
      "setLockController(address,bool)": {
        "params": {
          "_allowed": "- Allowance status.",
          "_lockController": "- The new lock controller address."
        }
      },
      "unlockAsset(address,uint256)": {
        "params": {
          "_asset": "- The locked asset addresses.",
          "_id": "- The locked asset id."
        }
      }
    },
    "title": "DelegationOwner",
    "version": 1
  },
  "userdoc": {
    "kind": "user",
    "methods": {
      "allowedControllers()": {
        "notice": "The AllowedControllers address."
      },
      "assetId(address,uint256)": {
        "notice": "Returns internal identification of an asset."
      },
      "changeClaimDate(address,uint256,uint256)": {
        "notice": "Updates the claimDate for a locked asset."
      },
      "claimAsset(address,uint256,address)": {
        "notice": "Sends a locked asset to the `receiver`."
      },
      "delegate(address,uint256,address,uint256)": {
        "notice": "Delegates the usage of an asset to the `_delegatee` for a `_duration` of time."
      },
      "delegateSignature(address[],uint256[],address,uint256)": {
        "notice": "Delegates the usage of the signature to the `_delegatee` for a `_duration` of time. Locking a group of assets in the wallet."
      },
      "delegationControllers(address)": {
        "notice": "The delegation controller address. Allowed to execute delegation related functions."
      },
      "delegations(bytes32)": {
        "notice": "Stores the list of asset delegations. keccak256(address, nft id) => Delegation"
      },
      "endDelegate(address,uint256)": {
        "notice": "Ends asset usage delegation."
      },
      "endDelegateSignature()": {
        "notice": "Ends the delegation of the usage of the signature for the `_delegatee`. Unlocking a group of assets."
      },
      "execTransaction(address,uint256,address,uint256,bytes,uint256,uint256,uint256,address,address)": {
        "notice": "Execute a transaction through the GnosisSafe wallet. The sender should be the delegatee of the given asset and the function should be allowed for the collection."
      },
      "guard()": {
        "notice": "The DelegationGuard address."
      },
      "initialize(address,address,address,address,address)": {
        "notice": "Initializes the proxy state."
      },
      "isAllowedFunction(address,address,bytes4)": {
        "notice": "Checks that a function is allowed to be executed by a delegatee of a given asset."
      },
      "isAssetDelegated(address,uint256)": {
        "notice": "Returns if an asset is delegated or included in current signature delegation."
      },
      "isAssetLocked(address,uint256)": {
        "notice": "Returns if an asset is locked."
      },
      "isSignatureDelegated()": {
        "notice": "Returns if the signature is delegated."
      },
      "isValidSignature(bytes,bytes)": {
        "notice": "Validates that the signer is the current signature delegatee, or a valid transaction executed by a asset delegatee."
      },
      "lockAsset(address,uint256,uint256)": {
        "notice": "Sets an asset as locked."
      },
      "lockControllers(address)": {
        "notice": "The lock controller address. Allowed to execute asset locking related functions."
      },
      "lockedAssets(bytes32)": {
        "notice": "Stores for each locked assets the date since it turns claimable. keccak256(address, nft id) => claimDate"
      },
      "lockedBy(bytes32)": {
        "notice": "Stores for each locked assets the lock controller address"
      },
      "owner()": {
        "notice": "The owner of the DelegationWallet, it is set only once upon initialization. Since this contract works in tandem with DelegationGuard which do not allow to change the Safe owners, this owner can't change neither."
      },
      "recipes()": {
        "notice": "The DelegationRecipes address."
      },
      "safe()": {
        "notice": "Safe wallet address."
      },
      "setDelegationController(address,bool)": {
        "notice": "Sets a delegation controller address as allowed or not."
      },
      "setLockController(address,bool)": {
        "notice": "Sets the lock controller address as allowed or not."
      },
      "signatureDelegation()": {
        "notice": "Stores the current signature delegation."
      },
      "unlockAsset(address,uint256)": {
        "notice": "Sets an asset as unlocked."
      }
    },
    "version": 1
  },
  "storageLayout": {
    "storage": [
      {
        "astId": 3239,
        "contract": "src/DelegationOwner.sol:DelegationOwner",
        "label": "_initialized",
        "offset": 0,
        "slot": "0",
        "type": "t_uint8"
      },
      {
        "astId": 3242,
        "contract": "src/DelegationOwner.sol:DelegationOwner",
        "label": "_initializing",
        "offset": 1,
        "slot": "0",
        "type": "t_bool"
      },
      {
        "astId": 8279,
        "contract": "src/DelegationOwner.sol:DelegationOwner",
        "label": "safe",
        "offset": 2,
        "slot": "0",
        "type": "t_address"
      },
      {
        "astId": 8282,
        "contract": "src/DelegationOwner.sol:DelegationOwner",
        "label": "owner",
        "offset": 0,
        "slot": "1",
        "type": "t_address"
      },
      {
        "astId": 8287,
        "contract": "src/DelegationOwner.sol:DelegationOwner",
        "label": "delegationControllers",
        "offset": 0,
        "slot": "2",
        "type": "t_mapping(t_address,t_bool)"
      },
      {
        "astId": 8292,
        "contract": "src/DelegationOwner.sol:DelegationOwner",
        "label": "lockControllers",
        "offset": 0,
        "slot": "3",
        "type": "t_mapping(t_address,t_bool)"
      },
      {
        "astId": 8296,
        "contract": "src/DelegationOwner.sol:DelegationOwner",
        "label": "guard",
        "offset": 0,
        "slot": "4",
        "type": "t_contract(DelegationGuard)8217"
      },
      {
        "astId": 8298,
        "contract": "src/DelegationOwner.sol:DelegationOwner",
        "label": "isExecuting",
        "offset": 20,
        "slot": "4",
        "type": "t_bool"
      },
      {
        "astId": 8300,
        "contract": "src/DelegationOwner.sol:DelegationOwner",
        "label": "currentTxHash",
        "offset": 0,
        "slot": "5",
        "type": "t_bytes32"
      },
      {
        "astId": 8306,
        "contract": "src/DelegationOwner.sol:DelegationOwner",
        "label": "delegations",
        "offset": 0,
        "slot": "6",
        "type": "t_mapping(t_bytes32,t_struct(Delegation)8276_storage)"
      },
      {
        "astId": 8310,
        "contract": "src/DelegationOwner.sol:DelegationOwner",
        "label": "signatureDelegation",
        "offset": 0,
        "slot": "7",
        "type": "t_struct(Delegation)8276_storage"
      },
      {
        "astId": 8316,
        "contract": "src/DelegationOwner.sol:DelegationOwner",
        "label": "signatureDelegationAssetsIds",
        "offset": 0,
        "slot": "11",
        "type": "t_mapping(t_uint256,t_struct(Bytes32Set)6760_storage)"
      },
      {
        "astId": 8329,
        "contract": "src/DelegationOwner.sol:DelegationOwner",
        "label": "signatureDelegationAssets",
        "offset": 0,
        "slot": "12",
        "type": "t_mapping(t_uint256,t_struct(SignatureAssets)8323_storage)"
      },
      {
        "astId": 8332,
        "contract": "src/DelegationOwner.sol:DelegationOwner",
        "label": "currentSignatureDelegationAssets",
        "offset": 0,
        "slot": "13",
        "type": "t_uint256"
      },
      {
        "astId": 8337,
        "contract": "src/DelegationOwner.sol:DelegationOwner",
        "label": "lockedAssets",
        "offset": 0,
        "slot": "14",
        "type": "t_mapping(t_bytes32,t_uint256)"
      },
      {
        "astId": 8342,
        "contract": "src/DelegationOwner.sol:DelegationOwner",
        "label": "lockedBy",
        "offset": 0,
        "slot": "15",
        "type": "t_mapping(t_bytes32,t_address)"
      }
    ],
    "types": {
      "t_address": {
        "encoding": "inplace",
        "label": "address",
        "numberOfBytes": "20"
      },
      "t_array(t_address)dyn_storage": {
        "base": "t_address",
        "encoding": "dynamic_array",
        "label": "address[]",
        "numberOfBytes": "32"
      },
      "t_array(t_bytes32)dyn_storage": {
        "base": "t_bytes32",
        "encoding": "dynamic_array",
        "label": "bytes32[]",
        "numberOfBytes": "32"
      },
      "t_array(t_uint256)dyn_storage": {
        "base": "t_uint256",
        "encoding": "dynamic_array",
        "label": "uint256[]",
        "numberOfBytes": "32"
      },
      "t_bool": {
        "encoding": "inplace",
        "label": "bool",
        "numberOfBytes": "1"
      },
      "t_bytes32": {
        "encoding": "inplace",
        "label": "bytes32",
        "numberOfBytes": "32"
      },
      "t_contract(DelegationGuard)8217": {
        "encoding": "inplace",
        "label": "contract DelegationGuard",
        "numberOfBytes": "20"
      },
      "t_mapping(t_address,t_bool)": {
        "encoding": "mapping",
        "key": "t_address",
        "label": "mapping(address => bool)",
        "numberOfBytes": "32",
        "value": "t_bool"
      },
      "t_mapping(t_bytes32,t_address)": {
        "encoding": "mapping",
        "key": "t_bytes32",
        "label": "mapping(bytes32 => address)",
        "numberOfBytes": "32",
        "value": "t_address"
      },
      "t_mapping(t_bytes32,t_struct(Delegation)8276_storage)": {
        "encoding": "mapping",
        "key": "t_bytes32",
        "label": "mapping(bytes32 => struct DelegationOwner.Delegation)",
        "numberOfBytes": "32",
        "value": "t_struct(Delegation)8276_storage"
      },
      "t_mapping(t_bytes32,t_uint256)": {
        "encoding": "mapping",
        "key": "t_bytes32",
        "label": "mapping(bytes32 => uint256)",
        "numberOfBytes": "32",
        "value": "t_uint256"
      },
      "t_mapping(t_uint256,t_struct(Bytes32Set)6760_storage)": {
        "encoding": "mapping",
        "key": "t_uint256",
        "label": "mapping(uint256 => struct EnumerableSet.Bytes32Set)",
        "numberOfBytes": "32",
        "value": "t_struct(Bytes32Set)6760_storage"
      },
      "t_mapping(t_uint256,t_struct(SignatureAssets)8323_storage)": {
        "encoding": "mapping",
        "key": "t_uint256",
        "label": "mapping(uint256 => struct DelegationOwner.SignatureAssets)",
        "numberOfBytes": "32",
        "value": "t_struct(SignatureAssets)8323_storage"
      },
      "t_struct(Bytes32Set)6760_storage": {
        "encoding": "inplace",
        "label": "struct EnumerableSet.Bytes32Set",
        "members": [
          {
            "astId": 6759,
            "contract": "src/DelegationOwner.sol:DelegationOwner",
            "label": "_inner",
            "offset": 0,
            "slot": "0",
            "type": "t_struct(Set)6566_storage"
          }
        ],
        "numberOfBytes": "64"
      },
      "t_struct(Delegation)8276_storage": {
        "encoding": "inplace",
        "label": "struct DelegationOwner.Delegation",
        "members": [
          {
            "astId": 8269,
            "contract": "src/DelegationOwner.sol:DelegationOwner",
            "label": "controller",
            "offset": 0,
            "slot": "0",
            "type": "t_address"
          },
          {
            "astId": 8271,
            "contract": "src/DelegationOwner.sol:DelegationOwner",
            "label": "delegatee",
            "offset": 0,
            "slot": "1",
            "type": "t_address"
          },
          {
            "astId": 8273,
            "contract": "src/DelegationOwner.sol:DelegationOwner",
            "label": "from",
            "offset": 0,
            "slot": "2",
            "type": "t_uint256"
          },
          {
            "astId": 8275,
            "contract": "src/DelegationOwner.sol:DelegationOwner",
            "label": "to",
            "offset": 0,
            "slot": "3",
            "type": "t_uint256"
          }
        ],
        "numberOfBytes": "128"
      },
      "t_struct(Set)6566_storage": {
        "encoding": "inplace",
        "label": "struct EnumerableSet.Set",
        "members": [
          {
            "astId": 6561,
            "contract": "src/DelegationOwner.sol:DelegationOwner",
            "label": "_values",
            "offset": 0,
            "slot": "0",
            "type": "t_array(t_bytes32)dyn_storage"
          },
          {
            "astId": 6565,
            "contract": "src/DelegationOwner.sol:DelegationOwner",
            "label": "_indexes",
            "offset": 0,
            "slot": "1",
            "type": "t_mapping(t_bytes32,t_uint256)"
          }
        ],
        "numberOfBytes": "64"
      },
      "t_struct(SignatureAssets)8323_storage": {
        "encoding": "inplace",
        "label": "struct DelegationOwner.SignatureAssets",
        "members": [
          {
            "astId": 8319,
            "contract": "src/DelegationOwner.sol:DelegationOwner",
            "label": "assets",
            "offset": 0,
            "slot": "0",
            "type": "t_array(t_address)dyn_storage"
          },
          {
            "astId": 8322,
            "contract": "src/DelegationOwner.sol:DelegationOwner",
            "label": "ids",
            "offset": 0,
            "slot": "1",
            "type": "t_array(t_uint256)dyn_storage"
          }
        ],
        "numberOfBytes": "64"
      },
      "t_uint256": {
        "encoding": "inplace",
        "label": "uint256",
        "numberOfBytes": "32"
      },
      "t_uint8": {
        "encoding": "inplace",
        "label": "uint8",
        "numberOfBytes": "1"
      }
    }
  }
}