{
  "address": "0xF70653BBe6cC0fB9551A7a2B31bD939E696790bF",
  "abi": [
    {
      "inputs": [
        {
          "internalType": "address",
          "name": "_nft",
          "type": "address"
        }
      ],
      "stateMutability": "nonpayable",
      "type": "constructor"
    },
    {
      "inputs": [],
      "name": "allowedFunction",
      "outputs": [],
      "stateMutability": "nonpayable",
      "type": "function"
    },
    {
      "inputs": [],
      "name": "count",
      "outputs": [
        {
          "internalType": "uint256",
          "name": "",
          "type": "uint256"
        }
      ],
      "stateMutability": "view",
      "type": "function"
    },
    {
      "inputs": [],
      "name": "nft",
      "outputs": [
        {
          "internalType": "contract IERC721",
          "name": "",
          "type": "address"
        }
      ],
      "stateMutability": "view",
      "type": "function"
    },
    {
      "inputs": [],
      "name": "notAllowedFunction",
      "outputs": [],
      "stateMutability": "nonpayable",
      "type": "function"
    }
  ],
  "transactionHash": "0x5ba7413340e71d2cc0fa851ec6a67a2655957c89421c904bfbd0e3aa11efd2b3",
  "args": [
    "0xa67fbf4a1497506fe1dc89b5bf83ae12ab42cec0"
  ],
  "numDeployments": 2,
  "solcInputHash": "31c57df646d188b9526cd693d0ef43b2",
  "bytecode": "0x608060405234801561001057600080fd5b5060405161027938038061027983398101604081905261002f91610054565b600080546001600160a01b0319166001600160a01b0392909216919091179055610084565b60006020828403121561006657600080fd5b81516001600160a01b038116811461007d57600080fd5b9392505050565b6101e6806100936000396000f3fe608060405234801561001057600080fd5b506004361061004c5760003560e01c806306661abd1461005157806347ccca021461006d5780634816cbdf14610098578063823f7bfc14610098575b600080fd5b61005a60015481565b6040519081526020015b60405180910390f35b600054610080906001600160a01b031681565b6040516001600160a01b039091168152602001610064565b6100a06100a2565b005b600080546040516370a0823160e01b81523360048201526001600160a01b03909116906370a0823190602401602060405180830381865afa1580156100eb573d6000803e3d6000fd5b505050506040513d601f19601f8201168201806040525081019061010f9190610170565b116101575760405162461bcd60e51b81526020600482015260146024820152733737ba1031b7b63632b1ba34b7b71037bbb732b960611b604482015260640160405180910390fd5b60018060008282546101699190610189565b9091555050565b60006020828403121561018257600080fd5b5051919050565b808201808211156101aa57634e487b7160e01b600052601160045260246000fd5b9291505056fea26469706673582212200793ca25cd6db9e4b2d173cbcb0e2610f08dbe4eef8b28257a5db8b63e64ef9964736f6c63430008110033",
  "devdoc": {
    "kind": "dev",
    "methods": {},
    "version": 1
  },
  "userdoc": {
    "kind": "user",
    "methods": {},
    "version": 1
  },
  "storageLayout": {
    "storage": [
      {
        "astId": 12734,
        "contract": "src/test/TestNftPlatform.sol:TestNftPlatform",
        "label": "nft",
        "offset": 0,
        "slot": "0",
        "type": "t_contract(IERC721)4462"
      },
      {
        "astId": 12736,
        "contract": "src/test/TestNftPlatform.sol:TestNftPlatform",
        "label": "count",
        "offset": 0,
        "slot": "1",
        "type": "t_uint256"
      }
    ],
    "types": {
      "t_contract(IERC721)4462": {
        "encoding": "inplace",
        "label": "contract IERC721",
        "numberOfBytes": "20"
      },
      "t_uint256": {
        "encoding": "inplace",
        "label": "uint256",
        "numberOfBytes": "32"
      }
    }
  }
}