{
  "address": "0x43443aCE2d037789A778C9e8d9bf717389f76852",
  "abi": [
    {
      "inputs": [
        {
          "internalType": "address",
          "name": "_nft",
          "type": "address"
        }
      ],
      "stateMutability": "nonpayable",
      "type": "constructor"
    },
    {
      "inputs": [],
      "name": "allowedFunction",
      "outputs": [],
      "stateMutability": "nonpayable",
      "type": "function"
    },
    {
      "inputs": [],
      "name": "count",
      "outputs": [
        {
          "internalType": "uint256",
          "name": "",
          "type": "uint256"
        }
      ],
      "stateMutability": "view",
      "type": "function"
    },
    {
      "inputs": [],
      "name": "nft",
      "outputs": [
        {
          "internalType": "contract IERC721",
          "name": "",
          "type": "address"
        }
      ],
      "stateMutability": "view",
      "type": "function"
    },
    {
      "inputs": [],
      "name": "notAllowedFunction",
      "outputs": [],
      "stateMutability": "nonpayable",
      "type": "function"
    }
  ],
  "transactionHash": "0xe7863a51dcd2094705635b8075c4b084ecf93cc561d65d96755335dfa97206ed",
  "args": [
    "0x9520268bD928289c96a03Cec15b21b95E0dEeffF"
  ],
  "numDeployments": 1,
  "solcInputHash": "a56c6ee922d4ac6e80286fa9713dcc7e",
  "bytecode": "0x608060405234801561001057600080fd5b5060405161027838038061027883398101604081905261002f91610054565b600080546001600160a01b0319166001600160a01b0392909216919091179055610084565b60006020828403121561006657600080fd5b81516001600160a01b038116811461007d57600080fd5b9392505050565b6101e5806100936000396000f3fe608060405234801561001057600080fd5b506004361061004c5760003560e01c806306661abd1461005157806347ccca021461006d5780634816cbdf14610098578063823f7bfc14610098575b600080fd5b61005a60015481565b6040519081526020015b60405180910390f35b600054610080906001600160a01b031681565b6040516001600160a01b039091168152602001610064565b6100a06100a2565b005b600080546040516370a0823160e01b81523360048201526001600160a01b03909116906370a0823190602401602060405180830381865afa1580156100eb573d6000803e3d6000fd5b505050506040513d601f19601f8201168201806040525081019061010f9190610170565b116101575760405162461bcd60e51b81526020600482015260146024820152733737ba1031b7b63632b1ba34b7b71037bbb732b960611b604482015260640160405180910390fd5b60018060008282546101699190610189565b9091555050565b60006020828403121561018257600080fd5b5051919050565b600082198211156101aa57634e487b7160e01b600052601160045260246000fd5b50019056fea2646970667358221220f43d61243e4a733a068b92ae73c0b110d47752875cc378923fc9399d8c83d15d64736f6c634300080d0033",
  "devdoc": {
    "kind": "dev",
    "methods": {},
    "version": 1
  },
  "userdoc": {
    "kind": "user",
    "methods": {},
    "version": 1
  },
  "storageLayout": {
    "storage": [
      {
        "astId": 11845,
        "contract": "src/test/TestNftPlatform.sol:TestNftPlatform",
        "label": "nft",
        "offset": 0,
        "slot": "0",
        "type": "t_contract(IERC721)4462"
      },
      {
        "astId": 11847,
        "contract": "src/test/TestNftPlatform.sol:TestNftPlatform",
        "label": "count",
        "offset": 0,
        "slot": "1",
        "type": "t_uint256"
      }
    ],
    "types": {
      "t_contract(IERC721)4462": {
        "encoding": "inplace",
        "label": "contract IERC721",
        "numberOfBytes": "20"
      },
      "t_uint256": {
        "encoding": "inplace",
        "label": "uint256",
        "numberOfBytes": "32"
      }
    }
  }
}